{
	"contracts/4_test.sol": {
		"SupplyChain": {
			"abi": [
				{
					"inputs": [],
					"stateMutability": "nonpayable",
					"type": "constructor"
				},
				{
					"inputs": [],
					"name": "admin",
					"outputs": [
						{
							"internalType": "address",
							"name": "",
							"type": "address"
						}
					],
					"stateMutability": "view",
					"type": "function"
				},
				{
					"inputs": [
						{
							"internalType": "string",
							"name": "name",
							"type": "string"
						},
						{
							"internalType": "address",
							"name": "supplier",
							"type": "address"
						},
						{
							"internalType": "address",
							"name": "distributor",
							"type": "address"
						},
						{
							"internalType": "address",
							"name": "retailer",
							"type": "address"
						}
					],
					"name": "createProduct",
					"outputs": [],
					"stateMutability": "nonpayable",
					"type": "function"
				},
				{
					"inputs": [
						{
							"internalType": "uint256",
							"name": "productId",
							"type": "uint256"
						}
					],
					"name": "distributeProduct",
					"outputs": [],
					"stateMutability": "nonpayable",
					"type": "function"
				},
				{
					"inputs": [
						{
							"internalType": "uint256",
							"name": "productId",
							"type": "uint256"
						}
					],
					"name": "getProduct",
					"outputs": [
						{
							"internalType": "uint256",
							"name": "",
							"type": "uint256"
						},
						{
							"internalType": "string",
							"name": "",
							"type": "string"
						},
						{
							"internalType": "enum SupplyChain.State",
							"name": "",
							"type": "uint8"
						},
						{
							"internalType": "address",
							"name": "",
							"type": "address"
						},
						{
							"internalType": "address",
							"name": "",
							"type": "address"
						},
						{
							"internalType": "address",
							"name": "",
							"type": "address"
						},
						{
							"internalType": "address",
							"name": "",
							"type": "address"
						}
					],
					"stateMutability": "view",
					"type": "function"
				},
				{
					"inputs": [],
					"name": "productCount",
					"outputs": [
						{
							"internalType": "uint256",
							"name": "",
							"type": "uint256"
						}
					],
					"stateMutability": "view",
					"type": "function"
				},
				{
					"inputs": [
						{
							"internalType": "uint256",
							"name": "",
							"type": "uint256"
						}
					],
					"name": "products",
					"outputs": [
						{
							"internalType": "uint256",
							"name": "id",
							"type": "uint256"
						},
						{
							"internalType": "string",
							"name": "name",
							"type": "string"
						},
						{
							"internalType": "enum SupplyChain.State",
							"name": "state",
							"type": "uint8"
						},
						{
							"internalType": "address",
							"name": "manufacturer",
							"type": "address"
						},
						{
							"internalType": "address",
							"name": "supplier",
							"type": "address"
						},
						{
							"internalType": "address",
							"name": "distributor",
							"type": "address"
						},
						{
							"internalType": "address",
							"name": "retailer",
							"type": "address"
						}
					],
					"stateMutability": "view",
					"type": "function"
				},
				{
					"inputs": [
						{
							"internalType": "uint256",
							"name": "productId",
							"type": "uint256"
						}
					],
					"name": "retailProduct",
					"outputs": [],
					"stateMutability": "nonpayable",
					"type": "function"
				},
				{
					"inputs": [
						{
							"internalType": "uint256",
							"name": "productId",
							"type": "uint256"
						}
					],
					"name": "supplyProduct",
					"outputs": [],
					"stateMutability": "nonpayable",
					"type": "function"
				}
			],
			"devdoc": {
				"kind": "dev",
				"methods": {},
				"version": 1
			},
			"evm": {
				"assembly": "    /* \"contracts/4_test.sol\":74:2907  contract SupplyChain {... */\n  mstore(0x40, 0x80)\n    /* \"contracts/4_test.sol\":482:533  constructor() {... */\n  callvalue\n  dup1\n  iszero\n  tag_1\n  jumpi\n  0x00\n  dup1\n  revert\ntag_1:\n  pop\n    /* \"contracts/4_test.sol\":515:525  msg.sender */\n  caller\n    /* \"contracts/4_test.sol\":507:512  admin */\n  0x02\n  0x00\n    /* \"contracts/4_test.sol\":507:525  admin = msg.sender */\n  0x0100\n  exp\n  dup2\n  sload\n  dup2\n  0xffffffffffffffffffffffffffffffffffffffff\n  mul\n  not\n  and\n  swap1\n  dup4\n  0xffffffffffffffffffffffffffffffffffffffff\n  and\n  mul\n  or\n  swap1\n  sstore\n  pop\n    /* \"contracts/4_test.sol\":74:2907  contract SupplyChain {... */\n  dataSize(sub_0)\n  dup1\n  dataOffset(sub_0)\n  0x00\n  codecopy\n  0x00\n  return\nstop\n\nsub_0: assembly {\n        /* \"contracts/4_test.sol\":74:2907  contract SupplyChain {... */\n      mstore(0x40, 0x80)\n      callvalue\n      dup1\n      iszero\n      tag_1\n      jumpi\n      0x00\n      dup1\n      revert\n    tag_1:\n      pop\n      jumpi(tag_2, lt(calldatasize, 0x04))\n      shr(0xe0, calldataload(0x00))\n      dup1\n      0xb9db15b4\n      gt\n      tag_11\n      jumpi\n      dup1\n      0xb9db15b4\n      eq\n      tag_7\n      jumpi\n      dup1\n      0xe0f6ef87\n      eq\n      tag_8\n      jumpi\n      dup1\n      0xf851a440\n      eq\n      tag_9\n      jumpi\n      dup1\n      0xff403e23\n      eq\n      tag_10\n      jumpi\n      jump(tag_2)\n    tag_11:\n      dup1\n      0x0e4000db\n      eq\n      tag_3\n      jumpi\n      dup1\n      0x6b36bed1\n      eq\n      tag_4\n      jumpi\n      dup1\n      0x7acc0b20\n      eq\n      tag_5\n      jumpi\n      dup1\n      0xaa74cf59\n      eq\n      tag_6\n      jumpi\n    tag_2:\n      0x00\n      dup1\n      revert\n        /* \"contracts/4_test.sol\":1971:2213  function distributeProduct(uint productId) public onlyDistributor(productId) {... */\n    tag_3:\n      tag_12\n      0x04\n      dup1\n      calldatasize\n      sub\n      dup2\n      add\n      swap1\n      tag_13\n      swap2\n      swap1\n      tag_14\n      jump\t// in\n    tag_13:\n      tag_15\n      jump\t// in\n    tag_12:\n      stop\n        /* \"contracts/4_test.sol\":1738:1963  function supplyProduct(uint productId) public onlySupplier(productId) {... */\n    tag_4:\n      tag_16\n      0x04\n      dup1\n      calldatasize\n      sub\n      dup2\n      add\n      swap1\n      tag_17\n      swap2\n      swap1\n      tag_14\n      jump\t// in\n    tag_17:\n      tag_18\n      jump\t// in\n    tag_16:\n      stop\n        /* \"contracts/4_test.sol\":373:413  mapping(uint => Product) public products */\n    tag_5:\n      tag_19\n      0x04\n      dup1\n      calldatasize\n      sub\n      dup2\n      add\n      swap1\n      tag_20\n      swap2\n      swap1\n      tag_14\n      jump\t// in\n    tag_20:\n      tag_21\n      jump\t// in\n    tag_19:\n      mload(0x40)\n      tag_22\n      swap8\n      swap7\n      swap6\n      swap5\n      swap4\n      swap3\n      swap2\n      swap1\n      tag_23\n      jump\t// in\n    tag_22:\n      mload(0x40)\n      dup1\n      swap2\n      sub\n      swap1\n      return\n        /* \"contracts/4_test.sol\":1322:1730  function createProduct(... */\n    tag_6:\n      tag_24\n      0x04\n      dup1\n      calldatasize\n      sub\n      dup2\n      add\n      swap1\n      tag_25\n      swap2\n      swap1\n      tag_26\n      jump\t// in\n    tag_25:\n      tag_27\n      jump\t// in\n    tag_24:\n      stop\n        /* \"contracts/4_test.sol\":2458:2904  function getProduct(uint productId) public view returns (... */\n    tag_7:\n      tag_28\n      0x04\n      dup1\n      calldatasize\n      sub\n      dup2\n      add\n      swap1\n      tag_29\n      swap2\n      swap1\n      tag_14\n      jump\t// in\n    tag_29:\n      tag_30\n      jump\t// in\n    tag_28:\n      mload(0x40)\n      tag_31\n      swap8\n      swap7\n      swap6\n      swap5\n      swap4\n      swap3\n      swap2\n      swap1\n      tag_23\n      jump\t// in\n    tag_31:\n      mload(0x40)\n      dup1\n      swap2\n      sub\n      swap1\n      return\n        /* \"contracts/4_test.sol\":420:444  uint public productCount */\n    tag_8:\n      tag_32\n      tag_33\n      jump\t// in\n    tag_32:\n      mload(0x40)\n      tag_34\n      swap2\n      swap1\n      tag_35\n      jump\t// in\n    tag_34:\n      mload(0x40)\n      dup1\n      swap2\n      sub\n      swap1\n      return\n        /* \"contracts/4_test.sol\":453:473  address public admin */\n    tag_9:\n      tag_36\n      tag_37\n      jump\t// in\n    tag_36:\n      mload(0x40)\n      tag_38\n      swap2\n      swap1\n      tag_39\n      jump\t// in\n    tag_38:\n      mload(0x40)\n      dup1\n      swap2\n      sub\n      swap1\n      return\n        /* \"contracts/4_test.sol\":2221:2450  function retailProduct(uint productId) public onlyRetailer(productId) {... */\n    tag_10:\n      tag_40\n      0x04\n      dup1\n      calldatasize\n      sub\n      dup2\n      add\n      swap1\n      tag_41\n      swap2\n      swap1\n      tag_14\n      jump\t// in\n    tag_41:\n      tag_42\n      jump\t// in\n    tag_40:\n      stop\n        /* \"contracts/4_test.sol\":1971:2213  function distributeProduct(uint productId) public onlyDistributor(productId) {... */\n    tag_15:\n        /* \"contracts/4_test.sol\":2037:2046  productId */\n      dup1\n        /* \"contracts/4_test.sol\":1042:1050  products */\n      0x00\n        /* \"contracts/4_test.sol\":1042:1061  products[productId] */\n      dup1\n        /* \"contracts/4_test.sol\":1051:1060  productId */\n      dup3\n        /* \"contracts/4_test.sol\":1042:1061  products[productId] */\n      dup2\n      mstore\n      0x20\n      add\n      swap1\n      dup2\n      mstore\n      0x20\n      add\n      0x00\n      keccak256\n        /* \"contracts/4_test.sol\":1042:1073  products[productId].distributor */\n      0x04\n      add\n      0x00\n      swap1\n      sload\n      swap1\n      0x0100\n      exp\n      swap1\n      div\n      0xffffffffffffffffffffffffffffffffffffffff\n      and\n        /* \"contracts/4_test.sol\":1028:1073  msg.sender == products[productId].distributor */\n      0xffffffffffffffffffffffffffffffffffffffff\n      and\n        /* \"contracts/4_test.sol\":1028:1038  msg.sender */\n      caller\n        /* \"contracts/4_test.sol\":1028:1073  msg.sender == products[productId].distributor */\n      0xffffffffffffffffffffffffffffffffffffffff\n      and\n      eq\n        /* \"contracts/4_test.sol\":1020:1097  require(msg.sender == products[productId].distributor, \"Not the distributor\") */\n      tag_44\n      jumpi\n      mload(0x40)\n      0x08c379a000000000000000000000000000000000000000000000000000000000\n      dup2\n      mstore\n      0x04\n      add\n      tag_45\n      swap1\n      tag_46\n      jump\t// in\n    tag_45:\n      mload(0x40)\n      dup1\n      swap2\n      sub\n      swap1\n      revert\n    tag_44:\n        /* \"contracts/4_test.sol\":2096:2110  State.Supplied */\n      0x01\n        /* \"contracts/4_test.sol\":2067:2110  products[productId].state == State.Supplied */\n      0x03\n      dup2\n      gt\n      iszero\n      tag_48\n      jumpi\n      tag_49\n      tag_50\n      jump\t// in\n    tag_49:\n    tag_48:\n        /* \"contracts/4_test.sol\":2067:2075  products */\n      0x00\n        /* \"contracts/4_test.sol\":2067:2086  products[productId] */\n      dup1\n        /* \"contracts/4_test.sol\":2076:2085  productId */\n      dup5\n        /* \"contracts/4_test.sol\":2067:2086  products[productId] */\n      dup2\n      mstore\n      0x20\n      add\n      swap1\n      dup2\n      mstore\n      0x20\n      add\n      0x00\n      keccak256\n        /* \"contracts/4_test.sol\":2067:2092  products[productId].state */\n      0x02\n      add\n      0x00\n      swap1\n      sload\n      swap1\n      0x0100\n      exp\n      swap1\n      div\n      0xff\n      and\n        /* \"contracts/4_test.sol\":2067:2110  products[productId].state == State.Supplied */\n      0x03\n      dup2\n      gt\n      iszero\n      tag_51\n      jumpi\n      tag_52\n      tag_50\n      jump\t// in\n    tag_52:\n    tag_51:\n      eq\n        /* \"contracts/4_test.sol\":2059:2149  require(products[productId].state == State.Supplied, \"Product not ready for distribution\") */\n      tag_53\n      jumpi\n      mload(0x40)\n      0x08c379a000000000000000000000000000000000000000000000000000000000\n      dup2\n      mstore\n      0x04\n      add\n      tag_54\n      swap1\n      tag_55\n      jump\t// in\n    tag_54:\n      mload(0x40)\n      dup1\n      swap2\n      sub\n      swap1\n      revert\n    tag_53:\n        /* \"contracts/4_test.sol\":2188:2205  State.Distributed */\n      0x02\n        /* \"contracts/4_test.sol\":2160:2168  products */\n      0x00\n        /* \"contracts/4_test.sol\":2160:2179  products[productId] */\n      dup1\n        /* \"contracts/4_test.sol\":2169:2178  productId */\n      dup5\n        /* \"contracts/4_test.sol\":2160:2179  products[productId] */\n      dup2\n      mstore\n      0x20\n      add\n      swap1\n      dup2\n      mstore\n      0x20\n      add\n      0x00\n      keccak256\n        /* \"contracts/4_test.sol\":2160:2185  products[productId].state */\n      0x02\n      add\n      0x00\n        /* \"contracts/4_test.sol\":2160:2205  products[productId].state = State.Distributed */\n      0x0100\n      exp\n      dup2\n      sload\n      dup2\n      0xff\n      mul\n      not\n      and\n      swap1\n      dup4\n      0x03\n      dup2\n      gt\n      iszero\n      tag_56\n      jumpi\n      tag_57\n      tag_50\n      jump\t// in\n    tag_57:\n    tag_56:\n      mul\n      or\n      swap1\n      sstore\n      pop\n        /* \"contracts/4_test.sol\":1971:2213  function distributeProduct(uint productId) public onlyDistributor(productId) {... */\n      pop\n      pop\n      jump\t// out\n        /* \"contracts/4_test.sol\":1738:1963  function supplyProduct(uint productId) public onlySupplier(productId) {... */\n    tag_18:\n        /* \"contracts/4_test.sol\":1797:1806  productId */\n      dup1\n        /* \"contracts/4_test.sol\":891:899  products */\n      0x00\n        /* \"contracts/4_test.sol\":891:910  products[productId] */\n      dup1\n        /* \"contracts/4_test.sol\":900:909  productId */\n      dup3\n        /* \"contracts/4_test.sol\":891:910  products[productId] */\n      dup2\n      mstore\n      0x20\n      add\n      swap1\n      dup2\n      mstore\n      0x20\n      add\n      0x00\n      keccak256\n        /* \"contracts/4_test.sol\":891:919  products[productId].supplier */\n      0x03\n      add\n      0x00\n      swap1\n      sload\n      swap1\n      0x0100\n      exp\n      swap1\n      div\n      0xffffffffffffffffffffffffffffffffffffffff\n      and\n        /* \"contracts/4_test.sol\":877:919  msg.sender == products[productId].supplier */\n      0xffffffffffffffffffffffffffffffffffffffff\n      and\n        /* \"contracts/4_test.sol\":877:887  msg.sender */\n      caller\n        /* \"contracts/4_test.sol\":877:919  msg.sender == products[productId].supplier */\n      0xffffffffffffffffffffffffffffffffffffffff\n      and\n      eq\n        /* \"contracts/4_test.sol\":869:940  require(msg.sender == products[productId].supplier, \"Not the supplier\") */\n      tag_59\n      jumpi\n      mload(0x40)\n      0x08c379a000000000000000000000000000000000000000000000000000000000\n      dup2\n      mstore\n      0x04\n      add\n      tag_60\n      swap1\n      tag_61\n      jump\t// in\n    tag_60:\n      mload(0x40)\n      dup1\n      swap2\n      sub\n      swap1\n      revert\n    tag_59:\n        /* \"contracts/4_test.sol\":1856:1869  State.Created */\n      0x00\n        /* \"contracts/4_test.sol\":1827:1869  products[productId].state == State.Created */\n      0x03\n      dup2\n      gt\n      iszero\n      tag_63\n      jumpi\n      tag_64\n      tag_50\n      jump\t// in\n    tag_64:\n    tag_63:\n        /* \"contracts/4_test.sol\":1827:1835  products */\n      0x00\n        /* \"contracts/4_test.sol\":1827:1846  products[productId] */\n      dup1\n        /* \"contracts/4_test.sol\":1836:1845  productId */\n      dup5\n        /* \"contracts/4_test.sol\":1827:1846  products[productId] */\n      dup2\n      mstore\n      0x20\n      add\n      swap1\n      dup2\n      mstore\n      0x20\n      add\n      0x00\n      keccak256\n        /* \"contracts/4_test.sol\":1827:1852  products[productId].state */\n      0x02\n      add\n      0x00\n      swap1\n      sload\n      swap1\n      0x0100\n      exp\n      swap1\n      div\n      0xff\n      and\n        /* \"contracts/4_test.sol\":1827:1869  products[productId].state == State.Created */\n      0x03\n      dup2\n      gt\n      iszero\n      tag_65\n      jumpi\n      tag_66\n      tag_50\n      jump\t// in\n    tag_66:\n    tag_65:\n      eq\n        /* \"contracts/4_test.sol\":1819:1902  require(products[productId].state == State.Created, \"Product not ready for supply\") */\n      tag_67\n      jumpi\n      mload(0x40)\n      0x08c379a000000000000000000000000000000000000000000000000000000000\n      dup2\n      mstore\n      0x04\n      add\n      tag_68\n      swap1\n      tag_69\n      jump\t// in\n    tag_68:\n      mload(0x40)\n      dup1\n      swap2\n      sub\n      swap1\n      revert\n    tag_67:\n        /* \"contracts/4_test.sol\":1941:1955  State.Supplied */\n      0x01\n        /* \"contracts/4_test.sol\":1913:1921  products */\n      0x00\n        /* \"contracts/4_test.sol\":1913:1932  products[productId] */\n      dup1\n        /* \"contracts/4_test.sol\":1922:1931  productId */\n      dup5\n        /* \"contracts/4_test.sol\":1913:1932  products[productId] */\n      dup2\n      mstore\n      0x20\n      add\n      swap1\n      dup2\n      mstore\n      0x20\n      add\n      0x00\n      keccak256\n        /* \"contracts/4_test.sol\":1913:1938  products[productId].state */\n      0x02\n      add\n      0x00\n        /* \"contracts/4_test.sol\":1913:1955  products[productId].state = State.Supplied */\n      0x0100\n      exp\n      dup2\n      sload\n      dup2\n      0xff\n      mul\n      not\n      and\n      swap1\n      dup4\n      0x03\n      dup2\n      gt\n      iszero\n      tag_70\n      jumpi\n      tag_71\n      tag_50\n      jump\t// in\n    tag_71:\n    tag_70:\n      mul\n      or\n      swap1\n      sstore\n      pop\n        /* \"contracts/4_test.sol\":1738:1963  function supplyProduct(uint productId) public onlySupplier(productId) {... */\n      pop\n      pop\n      jump\t// out\n        /* \"contracts/4_test.sol\":373:413  mapping(uint => Product) public products */\n    tag_21:\n      mstore(0x20, 0x00)\n      dup1\n      0x00\n      mstore\n      keccak256(0x00, 0x40)\n      0x00\n      swap2\n      pop\n      swap1\n      pop\n      dup1\n      0x00\n      add\n      sload\n      swap1\n      dup1\n      0x01\n      add\n      dup1\n      sload\n      tag_72\n      swap1\n      tag_73\n      jump\t// in\n    tag_72:\n      dup1\n      0x1f\n      add\n      0x20\n      dup1\n      swap2\n      div\n      mul\n      0x20\n      add\n      mload(0x40)\n      swap1\n      dup2\n      add\n      0x40\n      mstore\n      dup1\n      swap3\n      swap2\n      swap1\n      dup2\n      dup2\n      mstore\n      0x20\n      add\n      dup3\n      dup1\n      sload\n      tag_74\n      swap1\n      tag_73\n      jump\t// in\n    tag_74:\n      dup1\n      iszero\n      tag_75\n      jumpi\n      dup1\n      0x1f\n      lt\n      tag_76\n      jumpi\n      0x0100\n      dup1\n      dup4\n      sload\n      div\n      mul\n      dup4\n      mstore\n      swap2\n      0x20\n      add\n      swap2\n      jump(tag_75)\n    tag_76:\n      dup3\n      add\n      swap2\n      swap1\n      0x00\n      mstore\n      keccak256(0x00, 0x20)\n      swap1\n    tag_77:\n      dup2\n      sload\n      dup2\n      mstore\n      swap1\n      0x01\n      add\n      swap1\n      0x20\n      add\n      dup1\n      dup4\n      gt\n      tag_77\n      jumpi\n      dup3\n      swap1\n      sub\n      0x1f\n      and\n      dup3\n      add\n      swap2\n    tag_75:\n      pop\n      pop\n      pop\n      pop\n      pop\n      swap1\n      dup1\n      0x02\n      add\n      0x00\n      swap1\n      sload\n      swap1\n      0x0100\n      exp\n      swap1\n      div\n      0xff\n      and\n      swap1\n      dup1\n      0x02\n      add\n      0x01\n      swap1\n      sload\n      swap1\n      0x0100\n      exp\n      swap1\n      div\n      0xffffffffffffffffffffffffffffffffffffffff\n      and\n      swap1\n      dup1\n      0x03\n      add\n      0x00\n      swap1\n      sload\n      swap1\n      0x0100\n      exp\n      swap1\n      div\n      0xffffffffffffffffffffffffffffffffffffffff\n      and\n      swap1\n      dup1\n      0x04\n      add\n      0x00\n      swap1\n      sload\n      swap1\n      0x0100\n      exp\n      swap1\n      div\n      0xffffffffffffffffffffffffffffffffffffffff\n      and\n      swap1\n      dup1\n      0x05\n      add\n      0x00\n      swap1\n      sload\n      swap1\n      0x0100\n      exp\n      swap1\n      div\n      0xffffffffffffffffffffffffffffffffffffffff\n      and\n      swap1\n      pop\n      dup8\n      jump\t// out\n        /* \"contracts/4_test.sol\":1322:1730  function createProduct(... */\n    tag_27:\n        /* \"contracts/4_test.sol\":1508:1697  Product(... */\n      mload(0x40)\n      dup1\n      0xe0\n      add\n      0x40\n      mstore\n      dup1\n        /* \"contracts/4_test.sol\":1530:1542  productCount */\n      sload(0x01)\n        /* \"contracts/4_test.sol\":1508:1697  Product(... */\n      dup2\n      mstore\n      0x20\n      add\n        /* \"contracts/4_test.sol\":1557:1561  name */\n      dup6\n        /* \"contracts/4_test.sol\":1508:1697  Product(... */\n      dup2\n      mstore\n      0x20\n      add\n        /* \"contracts/4_test.sol\":1576:1589  State.Created */\n      0x00\n        /* \"contracts/4_test.sol\":1508:1697  Product(... */\n      0x03\n      dup2\n      gt\n      iszero\n      tag_79\n      jumpi\n      tag_80\n      tag_50\n      jump\t// in\n    tag_80:\n    tag_79:\n      dup2\n      mstore\n      0x20\n      add\n        /* \"contracts/4_test.sol\":1604:1614  msg.sender */\n      caller\n        /* \"contracts/4_test.sol\":1508:1697  Product(... */\n      0xffffffffffffffffffffffffffffffffffffffff\n      and\n      dup2\n      mstore\n      0x20\n      add\n        /* \"contracts/4_test.sol\":1629:1637  supplier */\n      dup5\n        /* \"contracts/4_test.sol\":1508:1697  Product(... */\n      0xffffffffffffffffffffffffffffffffffffffff\n      and\n      dup2\n      mstore\n      0x20\n      add\n        /* \"contracts/4_test.sol\":1652:1663  distributor */\n      dup4\n        /* \"contracts/4_test.sol\":1508:1697  Product(... */\n      0xffffffffffffffffffffffffffffffffffffffff\n      and\n      dup2\n      mstore\n      0x20\n      add\n        /* \"contracts/4_test.sol\":1678:1686  retailer */\n      dup3\n        /* \"contracts/4_test.sol\":1508:1697  Product(... */\n      0xffffffffffffffffffffffffffffffffffffffff\n      and\n      dup2\n      mstore\n      pop\n        /* \"contracts/4_test.sol\":1483:1491  products */\n      0x00\n        /* \"contracts/4_test.sol\":1483:1505  products[productCount] */\n      dup1\n        /* \"contracts/4_test.sol\":1492:1504  productCount */\n      sload(0x01)\n        /* \"contracts/4_test.sol\":1483:1505  products[productCount] */\n      dup2\n      mstore\n      0x20\n      add\n      swap1\n      dup2\n      mstore\n      0x20\n      add\n      0x00\n      keccak256\n        /* \"contracts/4_test.sol\":1483:1697  products[productCount] = Product(... */\n      0x00\n      dup3\n      add\n      mload\n      dup2\n      0x00\n      add\n      sstore\n      0x20\n      dup3\n      add\n      mload\n      dup2\n      0x01\n      add\n      swap1\n      dup2\n      tag_81\n      swap2\n      swap1\n      tag_82\n      jump\t// in\n    tag_81:\n      pop\n      0x40\n      dup3\n      add\n      mload\n      dup2\n      0x02\n      add\n      exp(0x0100, 0x00)\n      dup2\n      sload\n      dup2\n      0xff\n      mul\n      not\n      and\n      swap1\n      dup4\n      0x03\n      dup2\n      gt\n      iszero\n      tag_83\n      jumpi\n      tag_84\n      tag_50\n      jump\t// in\n    tag_84:\n    tag_83:\n      mul\n      or\n      swap1\n      sstore\n      pop\n      0x60\n      dup3\n      add\n      mload\n      dup2\n      0x02\n      add\n      exp(0x0100, 0x01)\n      dup2\n      sload\n      dup2\n      0xffffffffffffffffffffffffffffffffffffffff\n      mul\n      not\n      and\n      swap1\n      dup4\n      0xffffffffffffffffffffffffffffffffffffffff\n      and\n      mul\n      or\n      swap1\n      sstore\n      pop\n      0x80\n      dup3\n      add\n      mload\n      dup2\n      0x03\n      add\n      exp(0x0100, 0x00)\n      dup2\n      sload\n      dup2\n      0xffffffffffffffffffffffffffffffffffffffff\n      mul\n      not\n      and\n      swap1\n      dup4\n      0xffffffffffffffffffffffffffffffffffffffff\n      and\n      mul\n      or\n      swap1\n      sstore\n      pop\n      0xa0\n      dup3\n      add\n      mload\n      dup2\n      0x04\n      add\n      exp(0x0100, 0x00)\n      dup2\n      sload\n      dup2\n      0xffffffffffffffffffffffffffffffffffffffff\n      mul\n      not\n      and\n      swap1\n      dup4\n      0xffffffffffffffffffffffffffffffffffffffff\n      and\n      mul\n      or\n      swap1\n      sstore\n      pop\n      0xc0\n      dup3\n      add\n      mload\n      dup2\n      0x05\n      add\n      exp(0x0100, 0x00)\n      dup2\n      sload\n      dup2\n      0xffffffffffffffffffffffffffffffffffffffff\n      mul\n      not\n      and\n      swap1\n      dup4\n      0xffffffffffffffffffffffffffffffffffffffff\n      and\n      mul\n      or\n      swap1\n      sstore\n      pop\n      swap1\n      pop\n      pop\n        /* \"contracts/4_test.sol\":1708:1720  productCount */\n      0x01\n      0x00\n        /* \"contracts/4_test.sol\":1708:1722  productCount++ */\n      dup2\n      sload\n      dup1\n      swap3\n      swap2\n      swap1\n      tag_85\n      swap1\n      tag_86\n      jump\t// in\n    tag_85:\n      swap2\n      swap1\n      pop\n      sstore\n      pop\n        /* \"contracts/4_test.sol\":1322:1730  function createProduct(... */\n      pop\n      pop\n      pop\n      pop\n      jump\t// out\n        /* \"contracts/4_test.sol\":2458:2904  function getProduct(uint productId) public view returns (... */\n    tag_30:\n        /* \"contracts/4_test.sol\":2525:2529  uint */\n      0x00\n        /* \"contracts/4_test.sol\":2540:2553  string memory */\n      0x60\n        /* \"contracts/4_test.sol\":2564:2569  State */\n      0x00\n        /* \"contracts/4_test.sol\":2580:2587  address */\n      dup1\n        /* \"contracts/4_test.sol\":2598:2605  address */\n      0x00\n        /* \"contracts/4_test.sol\":2616:2623  address */\n      dup1\n        /* \"contracts/4_test.sol\":2634:2641  address */\n      0x00\n        /* \"contracts/4_test.sol\":2660:2676  Product memory p */\n      dup1\n        /* \"contracts/4_test.sol\":2679:2687  products */\n      0x00\n        /* \"contracts/4_test.sol\":2679:2698  products[productId] */\n      dup1\n        /* \"contracts/4_test.sol\":2688:2697  productId */\n      dup11\n        /* \"contracts/4_test.sol\":2679:2698  products[productId] */\n      dup2\n      mstore\n      0x20\n      add\n      swap1\n      dup2\n      mstore\n      0x20\n      add\n      0x00\n      keccak256\n        /* \"contracts/4_test.sol\":2660:2698  Product memory p = products[productId] */\n      mload(0x40)\n      dup1\n      0xe0\n      add\n      0x40\n      mstore\n      swap1\n      dup2\n      0x00\n      dup3\n      add\n      sload\n      dup2\n      mstore\n      0x20\n      add\n      0x01\n      dup3\n      add\n      dup1\n      sload\n      tag_88\n      swap1\n      tag_73\n      jump\t// in\n    tag_88:\n      dup1\n      0x1f\n      add\n      0x20\n      dup1\n      swap2\n      div\n      mul\n      0x20\n      add\n      mload(0x40)\n      swap1\n      dup2\n      add\n      0x40\n      mstore\n      dup1\n      swap3\n      swap2\n      swap1\n      dup2\n      dup2\n      mstore\n      0x20\n      add\n      dup3\n      dup1\n      sload\n      tag_89\n      swap1\n      tag_73\n      jump\t// in\n    tag_89:\n      dup1\n      iszero\n      tag_90\n      jumpi\n      dup1\n      0x1f\n      lt\n      tag_91\n      jumpi\n      0x0100\n      dup1\n      dup4\n      sload\n      div\n      mul\n      dup4\n      mstore\n      swap2\n      0x20\n      add\n      swap2\n      jump(tag_90)\n    tag_91:\n      dup3\n      add\n      swap2\n      swap1\n      0x00\n      mstore\n      keccak256(0x00, 0x20)\n      swap1\n    tag_92:\n      dup2\n      sload\n      dup2\n      mstore\n      swap1\n      0x01\n      add\n      swap1\n      0x20\n      add\n      dup1\n      dup4\n      gt\n      tag_92\n      jumpi\n      dup3\n      swap1\n      sub\n      0x1f\n      and\n      dup3\n      add\n      swap2\n    tag_90:\n      pop\n      pop\n      pop\n      pop\n      pop\n      dup2\n      mstore\n      0x20\n      add\n      0x02\n      dup3\n      add\n      0x00\n      swap1\n      sload\n      swap1\n      0x0100\n      exp\n      swap1\n      div\n      0xff\n      and\n      0x03\n      dup2\n      gt\n      iszero\n      tag_93\n      jumpi\n      tag_94\n      tag_50\n      jump\t// in\n    tag_94:\n    tag_93:\n      0x03\n      dup2\n      gt\n      iszero\n      tag_95\n      jumpi\n      tag_96\n      tag_50\n      jump\t// in\n    tag_96:\n    tag_95:\n      dup2\n      mstore\n      0x20\n      add\n      0x02\n      dup3\n      add\n      0x01\n      swap1\n      sload\n      swap1\n      0x0100\n      exp\n      swap1\n      div\n      0xffffffffffffffffffffffffffffffffffffffff\n      and\n      0xffffffffffffffffffffffffffffffffffffffff\n      and\n      0xffffffffffffffffffffffffffffffffffffffff\n      and\n      dup2\n      mstore\n      0x20\n      add\n      0x03\n      dup3\n      add\n      0x00\n      swap1\n      sload\n      swap1\n      0x0100\n      exp\n      swap1\n      div\n      0xffffffffffffffffffffffffffffffffffffffff\n      and\n      0xffffffffffffffffffffffffffffffffffffffff\n      and\n      0xffffffffffffffffffffffffffffffffffffffff\n      and\n      dup2\n      mstore\n      0x20\n      add\n      0x04\n      dup3\n      add\n      0x00\n      swap1\n      sload\n      swap1\n      0x0100\n      exp\n      swap1\n      div\n      0xffffffffffffffffffffffffffffffffffffffff\n      and\n      0xffffffffffffffffffffffffffffffffffffffff\n      and\n      0xffffffffffffffffffffffffffffffffffffffff\n      and\n      dup2\n      mstore\n      0x20\n      add\n      0x05\n      dup3\n      add\n      0x00\n      swap1\n      sload\n      swap1\n      0x0100\n      exp\n      swap1\n      div\n      0xffffffffffffffffffffffffffffffffffffffff\n      and\n      0xffffffffffffffffffffffffffffffffffffffff\n      and\n      0xffffffffffffffffffffffffffffffffffffffff\n      and\n      dup2\n      mstore\n      pop\n      pop\n      swap1\n      pop\n        /* \"contracts/4_test.sol\":2731:2732  p */\n      dup1\n        /* \"contracts/4_test.sol\":2731:2735  p.id */\n      0x00\n      add\n      mload\n        /* \"contracts/4_test.sol\":2750:2751  p */\n      dup2\n        /* \"contracts/4_test.sol\":2750:2756  p.name */\n      0x20\n      add\n      mload\n        /* \"contracts/4_test.sol\":2771:2772  p */\n      dup3\n        /* \"contracts/4_test.sol\":2771:2778  p.state */\n      0x40\n      add\n      mload\n        /* \"contracts/4_test.sol\":2793:2794  p */\n      dup4\n        /* \"contracts/4_test.sol\":2793:2807  p.manufacturer */\n      0x60\n      add\n      mload\n        /* \"contracts/4_test.sol\":2822:2823  p */\n      dup5\n        /* \"contracts/4_test.sol\":2822:2832  p.supplier */\n      0x80\n      add\n      mload\n        /* \"contracts/4_test.sol\":2847:2848  p */\n      dup6\n        /* \"contracts/4_test.sol\":2847:2860  p.distributor */\n      0xa0\n      add\n      mload\n        /* \"contracts/4_test.sol\":2875:2876  p */\n      dup7\n        /* \"contracts/4_test.sol\":2875:2885  p.retailer */\n      0xc0\n      add\n      mload\n        /* \"contracts/4_test.sol\":2709:2896  return (... */\n      swap8\n      pop\n      swap8\n      pop\n      swap8\n      pop\n      swap8\n      pop\n      swap8\n      pop\n      swap8\n      pop\n      swap8\n      pop\n      pop\n        /* \"contracts/4_test.sol\":2458:2904  function getProduct(uint productId) public view returns (... */\n      swap2\n      swap4\n      swap6\n      swap8\n      swap1\n      swap3\n      swap5\n      swap7\n      pop\n      jump\t// out\n        /* \"contracts/4_test.sol\":420:444  uint public productCount */\n    tag_33:\n      sload(0x01)\n      dup2\n      jump\t// out\n        /* \"contracts/4_test.sol\":453:473  address public admin */\n    tag_37:\n      0x02\n      0x00\n      swap1\n      sload\n      swap1\n      0x0100\n      exp\n      swap1\n      div\n      0xffffffffffffffffffffffffffffffffffffffff\n      and\n      dup2\n      jump\t// out\n        /* \"contracts/4_test.sol\":2221:2450  function retailProduct(uint productId) public onlyRetailer(productId) {... */\n    tag_42:\n        /* \"contracts/4_test.sol\":2280:2289  productId */\n      dup1\n        /* \"contracts/4_test.sol\":1196:1204  products */\n      0x00\n        /* \"contracts/4_test.sol\":1196:1215  products[productId] */\n      dup1\n        /* \"contracts/4_test.sol\":1205:1214  productId */\n      dup3\n        /* \"contracts/4_test.sol\":1196:1215  products[productId] */\n      dup2\n      mstore\n      0x20\n      add\n      swap1\n      dup2\n      mstore\n      0x20\n      add\n      0x00\n      keccak256\n        /* \"contracts/4_test.sol\":1196:1224  products[productId].retailer */\n      0x05\n      add\n      0x00\n      swap1\n      sload\n      swap1\n      0x0100\n      exp\n      swap1\n      div\n      0xffffffffffffffffffffffffffffffffffffffff\n      and\n        /* \"contracts/4_test.sol\":1182:1224  msg.sender == products[productId].retailer */\n      0xffffffffffffffffffffffffffffffffffffffff\n      and\n        /* \"contracts/4_test.sol\":1182:1192  msg.sender */\n      caller\n        /* \"contracts/4_test.sol\":1182:1224  msg.sender == products[productId].retailer */\n      0xffffffffffffffffffffffffffffffffffffffff\n      and\n      eq\n        /* \"contracts/4_test.sol\":1174:1245  require(msg.sender == products[productId].retailer, \"Not the retailer\") */\n      tag_98\n      jumpi\n      mload(0x40)\n      0x08c379a000000000000000000000000000000000000000000000000000000000\n      dup2\n      mstore\n      0x04\n      add\n      tag_99\n      swap1\n      tag_100\n      jump\t// in\n    tag_99:\n      mload(0x40)\n      dup1\n      swap2\n      sub\n      swap1\n      revert\n    tag_98:\n        /* \"contracts/4_test.sol\":2339:2356  State.Distributed */\n      0x02\n        /* \"contracts/4_test.sol\":2310:2356  products[productId].state == State.Distributed */\n      0x03\n      dup2\n      gt\n      iszero\n      tag_102\n      jumpi\n      tag_103\n      tag_50\n      jump\t// in\n    tag_103:\n    tag_102:\n        /* \"contracts/4_test.sol\":2310:2318  products */\n      0x00\n        /* \"contracts/4_test.sol\":2310:2329  products[productId] */\n      dup1\n        /* \"contracts/4_test.sol\":2319:2328  productId */\n      dup5\n        /* \"contracts/4_test.sol\":2310:2329  products[productId] */\n      dup2\n      mstore\n      0x20\n      add\n      swap1\n      dup2\n      mstore\n      0x20\n      add\n      0x00\n      keccak256\n        /* \"contracts/4_test.sol\":2310:2335  products[productId].state */\n      0x02\n      add\n      0x00\n      swap1\n      sload\n      swap1\n      0x0100\n      exp\n      swap1\n      div\n      0xff\n      and\n        /* \"contracts/4_test.sol\":2310:2356  products[productId].state == State.Distributed */\n      0x03\n      dup2\n      gt\n      iszero\n      tag_104\n      jumpi\n      tag_105\n      tag_50\n      jump\t// in\n    tag_105:\n    tag_104:\n      eq\n        /* \"contracts/4_test.sol\":2302:2389  require(products[productId].state == State.Distributed, \"Product not ready for retail\") */\n      tag_106\n      jumpi\n      mload(0x40)\n      0x08c379a000000000000000000000000000000000000000000000000000000000\n      dup2\n      mstore\n      0x04\n      add\n      tag_107\n      swap1\n      tag_108\n      jump\t// in\n    tag_107:\n      mload(0x40)\n      dup1\n      swap2\n      sub\n      swap1\n      revert\n    tag_106:\n        /* \"contracts/4_test.sol\":2428:2442  State.Retailed */\n      0x03\n        /* \"contracts/4_test.sol\":2400:2408  products */\n      0x00\n        /* \"contracts/4_test.sol\":2400:2419  products[productId] */\n      dup1\n        /* \"contracts/4_test.sol\":2409:2418  productId */\n      dup5\n        /* \"contracts/4_test.sol\":2400:2419  products[productId] */\n      dup2\n      mstore\n      0x20\n      add\n      swap1\n      dup2\n      mstore\n      0x20\n      add\n      0x00\n      keccak256\n        /* \"contracts/4_test.sol\":2400:2425  products[productId].state */\n      0x02\n      add\n      0x00\n        /* \"contracts/4_test.sol\":2400:2442  products[productId].state = State.Retailed */\n      0x0100\n      exp\n      dup2\n      sload\n      dup2\n      0xff\n      mul\n      not\n      and\n      swap1\n      dup4\n      0x03\n      dup2\n      gt\n      iszero\n      tag_109\n      jumpi\n      tag_110\n      tag_50\n      jump\t// in\n    tag_110:\n    tag_109:\n      mul\n      or\n      swap1\n      sstore\n      pop\n        /* \"contracts/4_test.sol\":2221:2450  function retailProduct(uint productId) public onlyRetailer(productId) {... */\n      pop\n      pop\n      jump\t// out\n        /* \"#utility.yul\":7:82   */\n    tag_111:\n        /* \"#utility.yul\":40:46   */\n      0x00\n        /* \"#utility.yul\":73:75   */\n      0x40\n        /* \"#utility.yul\":67:76   */\n      mload\n        /* \"#utility.yul\":57:76   */\n      swap1\n      pop\n        /* \"#utility.yul\":7:82   */\n      swap1\n      jump\t// out\n        /* \"#utility.yul\":88:205   */\n    tag_112:\n        /* \"#utility.yul\":197:198   */\n      0x00\n        /* \"#utility.yul\":194:195   */\n      dup1\n        /* \"#utility.yul\":187:199   */\n      revert\n        /* \"#utility.yul\":211:328   */\n    tag_113:\n        /* \"#utility.yul\":320:321   */\n      0x00\n        /* \"#utility.yul\":317:318   */\n      dup1\n        /* \"#utility.yul\":310:322   */\n      revert\n        /* \"#utility.yul\":334:411   */\n    tag_114:\n        /* \"#utility.yul\":371:378   */\n      0x00\n        /* \"#utility.yul\":400:405   */\n      dup2\n        /* \"#utility.yul\":389:405   */\n      swap1\n      pop\n        /* \"#utility.yul\":334:411   */\n      swap2\n      swap1\n      pop\n      jump\t// out\n        /* \"#utility.yul\":417:539   */\n    tag_115:\n        /* \"#utility.yul\":490:514   */\n      tag_176\n        /* \"#utility.yul\":508:513   */\n      dup2\n        /* \"#utility.yul\":490:514   */\n      tag_114\n      jump\t// in\n    tag_176:\n        /* \"#utility.yul\":483:488   */\n      dup2\n        /* \"#utility.yul\":480:515   */\n      eq\n        /* \"#utility.yul\":470:533   */\n      tag_177\n      jumpi\n        /* \"#utility.yul\":529:530   */\n      0x00\n        /* \"#utility.yul\":526:527   */\n      dup1\n        /* \"#utility.yul\":519:531   */\n      revert\n        /* \"#utility.yul\":470:533   */\n    tag_177:\n        /* \"#utility.yul\":417:539   */\n      pop\n      jump\t// out\n        /* \"#utility.yul\":545:684   */\n    tag_116:\n        /* \"#utility.yul\":591:596   */\n      0x00\n        /* \"#utility.yul\":629:635   */\n      dup2\n        /* \"#utility.yul\":616:636   */\n      calldataload\n        /* \"#utility.yul\":607:636   */\n      swap1\n      pop\n        /* \"#utility.yul\":645:678   */\n      tag_179\n        /* \"#utility.yul\":672:677   */\n      dup2\n        /* \"#utility.yul\":645:678   */\n      tag_115\n      jump\t// in\n    tag_179:\n        /* \"#utility.yul\":545:684   */\n      swap3\n      swap2\n      pop\n      pop\n      jump\t// out\n        /* \"#utility.yul\":690:1019   */\n    tag_14:\n        /* \"#utility.yul\":749:755   */\n      0x00\n        /* \"#utility.yul\":798:800   */\n      0x20\n        /* \"#utility.yul\":786:795   */\n      dup3\n        /* \"#utility.yul\":777:784   */\n      dup5\n        /* \"#utility.yul\":773:796   */\n      sub\n        /* \"#utility.yul\":769:801   */\n      slt\n        /* \"#utility.yul\":766:885   */\n      iszero\n      tag_181\n      jumpi\n        /* \"#utility.yul\":804:883   */\n      tag_182\n      tag_112\n      jump\t// in\n    tag_182:\n        /* \"#utility.yul\":766:885   */\n    tag_181:\n        /* \"#utility.yul\":924:925   */\n      0x00\n        /* \"#utility.yul\":949:1002   */\n      tag_183\n        /* \"#utility.yul\":994:1001   */\n      dup5\n        /* \"#utility.yul\":985:991   */\n      dup3\n        /* \"#utility.yul\":974:983   */\n      dup6\n        /* \"#utility.yul\":970:992   */\n      add\n        /* \"#utility.yul\":949:1002   */\n      tag_116\n      jump\t// in\n    tag_183:\n        /* \"#utility.yul\":939:1002   */\n      swap2\n      pop\n        /* \"#utility.yul\":895:1012   */\n      pop\n        /* \"#utility.yul\":690:1019   */\n      swap3\n      swap2\n      pop\n      pop\n      jump\t// out\n        /* \"#utility.yul\":1025:1143   */\n    tag_117:\n        /* \"#utility.yul\":1112:1136   */\n      tag_185\n        /* \"#utility.yul\":1130:1135   */\n      dup2\n        /* \"#utility.yul\":1112:1136   */\n      tag_114\n      jump\t// in\n    tag_185:\n        /* \"#utility.yul\":1107:1110   */\n      dup3\n        /* \"#utility.yul\":1100:1137   */\n      mstore\n        /* \"#utility.yul\":1025:1143   */\n      pop\n      pop\n      jump\t// out\n        /* \"#utility.yul\":1149:1248   */\n    tag_118:\n        /* \"#utility.yul\":1201:1207   */\n      0x00\n        /* \"#utility.yul\":1235:1240   */\n      dup2\n        /* \"#utility.yul\":1229:1241   */\n      mload\n        /* \"#utility.yul\":1219:1241   */\n      swap1\n      pop\n        /* \"#utility.yul\":1149:1248   */\n      swap2\n      swap1\n      pop\n      jump\t// out\n        /* \"#utility.yul\":1254:1423   */\n    tag_119:\n        /* \"#utility.yul\":1338:1349   */\n      0x00\n        /* \"#utility.yul\":1372:1378   */\n      dup3\n        /* \"#utility.yul\":1367:1370   */\n      dup3\n        /* \"#utility.yul\":1360:1379   */\n      mstore\n        /* \"#utility.yul\":1412:1416   */\n      0x20\n        /* \"#utility.yul\":1407:1410   */\n      dup3\n        /* \"#utility.yul\":1403:1417   */\n      add\n        /* \"#utility.yul\":1388:1417   */\n      swap1\n      pop\n        /* \"#utility.yul\":1254:1423   */\n      swap3\n      swap2\n      pop\n      pop\n      jump\t// out\n        /* \"#utility.yul\":1429:1568   */\n    tag_120:\n        /* \"#utility.yul\":1518:1524   */\n      dup3\n        /* \"#utility.yul\":1513:1516   */\n      dup2\n        /* \"#utility.yul\":1508:1511   */\n      dup4\n        /* \"#utility.yul\":1502:1525   */\n      mcopy\n        /* \"#utility.yul\":1559:1560   */\n      0x00\n        /* \"#utility.yul\":1550:1556   */\n      dup4\n        /* \"#utility.yul\":1545:1548   */\n      dup4\n        /* \"#utility.yul\":1541:1557   */\n      add\n        /* \"#utility.yul\":1534:1561   */\n      mstore\n        /* \"#utility.yul\":1429:1568   */\n      pop\n      pop\n      pop\n      jump\t// out\n        /* \"#utility.yul\":1574:1676   */\n    tag_121:\n        /* \"#utility.yul\":1615:1621   */\n      0x00\n        /* \"#utility.yul\":1666:1668   */\n      0x1f\n        /* \"#utility.yul\":1662:1669   */\n      not\n        /* \"#utility.yul\":1657:1659   */\n      0x1f\n        /* \"#utility.yul\":1650:1655   */\n      dup4\n        /* \"#utility.yul\":1646:1660   */\n      add\n        /* \"#utility.yul\":1642:1670   */\n      and\n        /* \"#utility.yul\":1632:1670   */\n      swap1\n      pop\n        /* \"#utility.yul\":1574:1676   */\n      swap2\n      swap1\n      pop\n      jump\t// out\n        /* \"#utility.yul\":1682:2059   */\n    tag_122:\n        /* \"#utility.yul\":1770:1773   */\n      0x00\n        /* \"#utility.yul\":1798:1837   */\n      tag_191\n        /* \"#utility.yul\":1831:1836   */\n      dup3\n        /* \"#utility.yul\":1798:1837   */\n      tag_118\n      jump\t// in\n    tag_191:\n        /* \"#utility.yul\":1853:1924   */\n      tag_192\n        /* \"#utility.yul\":1917:1923   */\n      dup2\n        /* \"#utility.yul\":1912:1915   */\n      dup6\n        /* \"#utility.yul\":1853:1924   */\n      tag_119\n      jump\t// in\n    tag_192:\n        /* \"#utility.yul\":1846:1924   */\n      swap4\n      pop\n        /* \"#utility.yul\":1933:1998   */\n      tag_193\n        /* \"#utility.yul\":1991:1997   */\n      dup2\n        /* \"#utility.yul\":1986:1989   */\n      dup6\n        /* \"#utility.yul\":1979:1983   */\n      0x20\n        /* \"#utility.yul\":1972:1977   */\n      dup7\n        /* \"#utility.yul\":1968:1984   */\n      add\n        /* \"#utility.yul\":1933:1998   */\n      tag_120\n      jump\t// in\n    tag_193:\n        /* \"#utility.yul\":2023:2052   */\n      tag_194\n        /* \"#utility.yul\":2045:2051   */\n      dup2\n        /* \"#utility.yul\":2023:2052   */\n      tag_121\n      jump\t// in\n    tag_194:\n        /* \"#utility.yul\":2018:2021   */\n      dup5\n        /* \"#utility.yul\":2014:2053   */\n      add\n        /* \"#utility.yul\":2007:2053   */\n      swap2\n      pop\n        /* \"#utility.yul\":1774:2059   */\n      pop\n        /* \"#utility.yul\":1682:2059   */\n      swap3\n      swap2\n      pop\n      pop\n      jump\t// out\n        /* \"#utility.yul\":2065:2245   */\n    tag_50:\n        /* \"#utility.yul\":2113:2190   */\n      0x4e487b7100000000000000000000000000000000000000000000000000000000\n        /* \"#utility.yul\":2110:2111   */\n      0x00\n        /* \"#utility.yul\":2103:2191   */\n      mstore\n        /* \"#utility.yul\":2210:2214   */\n      0x21\n        /* \"#utility.yul\":2207:2208   */\n      0x04\n        /* \"#utility.yul\":2200:2215   */\n      mstore\n        /* \"#utility.yul\":2234:2238   */\n      0x24\n        /* \"#utility.yul\":2231:2232   */\n      0x00\n        /* \"#utility.yul\":2224:2239   */\n      revert\n        /* \"#utility.yul\":2251:2363   */\n    tag_123:\n        /* \"#utility.yul\":2331:2332   */\n      0x04\n        /* \"#utility.yul\":2324:2329   */\n      dup2\n        /* \"#utility.yul\":2321:2333   */\n      lt\n        /* \"#utility.yul\":2311:2357   */\n      tag_197\n      jumpi\n        /* \"#utility.yul\":2337:2355   */\n      tag_198\n      tag_50\n      jump\t// in\n    tag_198:\n        /* \"#utility.yul\":2311:2357   */\n    tag_197:\n        /* \"#utility.yul\":2251:2363   */\n      pop\n      jump\t// out\n        /* \"#utility.yul\":2369:2494   */\n    tag_124:\n        /* \"#utility.yul\":2413:2420   */\n      0x00\n        /* \"#utility.yul\":2442:2447   */\n      dup2\n        /* \"#utility.yul\":2431:2447   */\n      swap1\n      pop\n        /* \"#utility.yul\":2448:2488   */\n      tag_200\n        /* \"#utility.yul\":2482:2487   */\n      dup3\n        /* \"#utility.yul\":2448:2488   */\n      tag_123\n      jump\t// in\n    tag_200:\n        /* \"#utility.yul\":2369:2494   */\n      swap2\n      swap1\n      pop\n      jump\t// out\n        /* \"#utility.yul\":2500:2625   */\n    tag_125:\n        /* \"#utility.yul\":2555:2564   */\n      0x00\n        /* \"#utility.yul\":2588:2619   */\n      tag_202\n        /* \"#utility.yul\":2613:2618   */\n      dup3\n        /* \"#utility.yul\":2588:2619   */\n      tag_124\n      jump\t// in\n    tag_202:\n        /* \"#utility.yul\":2575:2619   */\n      swap1\n      pop\n        /* \"#utility.yul\":2500:2625   */\n      swap2\n      swap1\n      pop\n      jump\t// out\n        /* \"#utility.yul\":2631:2772   */\n    tag_126:\n        /* \"#utility.yul\":2723:2765   */\n      tag_204\n        /* \"#utility.yul\":2759:2764   */\n      dup2\n        /* \"#utility.yul\":2723:2765   */\n      tag_125\n      jump\t// in\n    tag_204:\n        /* \"#utility.yul\":2718:2721   */\n      dup3\n        /* \"#utility.yul\":2711:2766   */\n      mstore\n        /* \"#utility.yul\":2631:2772   */\n      pop\n      pop\n      jump\t// out\n        /* \"#utility.yul\":2778:2904   */\n    tag_127:\n        /* \"#utility.yul\":2815:2822   */\n      0x00\n        /* \"#utility.yul\":2855:2897   */\n      0xffffffffffffffffffffffffffffffffffffffff\n        /* \"#utility.yul\":2848:2853   */\n      dup3\n        /* \"#utility.yul\":2844:2898   */\n      and\n        /* \"#utility.yul\":2833:2898   */\n      swap1\n      pop\n        /* \"#utility.yul\":2778:2904   */\n      swap2\n      swap1\n      pop\n      jump\t// out\n        /* \"#utility.yul\":2910:3006   */\n    tag_128:\n        /* \"#utility.yul\":2947:2954   */\n      0x00\n        /* \"#utility.yul\":2976:3000   */\n      tag_207\n        /* \"#utility.yul\":2994:2999   */\n      dup3\n        /* \"#utility.yul\":2976:3000   */\n      tag_127\n      jump\t// in\n    tag_207:\n        /* \"#utility.yul\":2965:3000   */\n      swap1\n      pop\n        /* \"#utility.yul\":2910:3006   */\n      swap2\n      swap1\n      pop\n      jump\t// out\n        /* \"#utility.yul\":3012:3130   */\n    tag_129:\n        /* \"#utility.yul\":3099:3123   */\n      tag_209\n        /* \"#utility.yul\":3117:3122   */\n      dup2\n        /* \"#utility.yul\":3099:3123   */\n      tag_128\n      jump\t// in\n    tag_209:\n        /* \"#utility.yul\":3094:3097   */\n      dup3\n        /* \"#utility.yul\":3087:3124   */\n      mstore\n        /* \"#utility.yul\":3012:3130   */\n      pop\n      pop\n      jump\t// out\n        /* \"#utility.yul\":3136:4123   */\n    tag_23:\n        /* \"#utility.yul\":3422:3426   */\n      0x00\n        /* \"#utility.yul\":3460:3463   */\n      0xe0\n        /* \"#utility.yul\":3449:3458   */\n      dup3\n        /* \"#utility.yul\":3445:3464   */\n      add\n        /* \"#utility.yul\":3437:3464   */\n      swap1\n      pop\n        /* \"#utility.yul\":3474:3545   */\n      tag_211\n        /* \"#utility.yul\":3542:3543   */\n      0x00\n        /* \"#utility.yul\":3531:3540   */\n      dup4\n        /* \"#utility.yul\":3527:3544   */\n      add\n        /* \"#utility.yul\":3518:3524   */\n      dup11\n        /* \"#utility.yul\":3474:3545   */\n      tag_117\n      jump\t// in\n    tag_211:\n        /* \"#utility.yul\":3592:3601   */\n      dup2\n        /* \"#utility.yul\":3586:3590   */\n      dup2\n        /* \"#utility.yul\":3582:3602   */\n      sub\n        /* \"#utility.yul\":3577:3579   */\n      0x20\n        /* \"#utility.yul\":3566:3575   */\n      dup4\n        /* \"#utility.yul\":3562:3580   */\n      add\n        /* \"#utility.yul\":3555:3603   */\n      mstore\n        /* \"#utility.yul\":3620:3698   */\n      tag_212\n        /* \"#utility.yul\":3693:3697   */\n      dup2\n        /* \"#utility.yul\":3684:3690   */\n      dup10\n        /* \"#utility.yul\":3620:3698   */\n      tag_122\n      jump\t// in\n    tag_212:\n        /* \"#utility.yul\":3612:3698   */\n      swap1\n      pop\n        /* \"#utility.yul\":3708:3785   */\n      tag_213\n        /* \"#utility.yul\":3781:3783   */\n      0x40\n        /* \"#utility.yul\":3770:3779   */\n      dup4\n        /* \"#utility.yul\":3766:3784   */\n      add\n        /* \"#utility.yul\":3757:3763   */\n      dup9\n        /* \"#utility.yul\":3708:3785   */\n      tag_126\n      jump\t// in\n    tag_213:\n        /* \"#utility.yul\":3795:3867   */\n      tag_214\n        /* \"#utility.yul\":3863:3865   */\n      0x60\n        /* \"#utility.yul\":3852:3861   */\n      dup4\n        /* \"#utility.yul\":3848:3866   */\n      add\n        /* \"#utility.yul\":3839:3845   */\n      dup8\n        /* \"#utility.yul\":3795:3867   */\n      tag_129\n      jump\t// in\n    tag_214:\n        /* \"#utility.yul\":3877:3950   */\n      tag_215\n        /* \"#utility.yul\":3945:3948   */\n      0x80\n        /* \"#utility.yul\":3934:3943   */\n      dup4\n        /* \"#utility.yul\":3930:3949   */\n      add\n        /* \"#utility.yul\":3921:3927   */\n      dup7\n        /* \"#utility.yul\":3877:3950   */\n      tag_129\n      jump\t// in\n    tag_215:\n        /* \"#utility.yul\":3960:4033   */\n      tag_216\n        /* \"#utility.yul\":4028:4031   */\n      0xa0\n        /* \"#utility.yul\":4017:4026   */\n      dup4\n        /* \"#utility.yul\":4013:4032   */\n      add\n        /* \"#utility.yul\":4004:4010   */\n      dup6\n        /* \"#utility.yul\":3960:4033   */\n      tag_129\n      jump\t// in\n    tag_216:\n        /* \"#utility.yul\":4043:4116   */\n      tag_217\n        /* \"#utility.yul\":4111:4114   */\n      0xc0\n        /* \"#utility.yul\":4100:4109   */\n      dup4\n        /* \"#utility.yul\":4096:4115   */\n      add\n        /* \"#utility.yul\":4087:4093   */\n      dup5\n        /* \"#utility.yul\":4043:4116   */\n      tag_129\n      jump\t// in\n    tag_217:\n        /* \"#utility.yul\":3136:4123   */\n      swap9\n      swap8\n      pop\n      pop\n      pop\n      pop\n      pop\n      pop\n      pop\n      pop\n      jump\t// out\n        /* \"#utility.yul\":4129:4246   */\n    tag_130:\n        /* \"#utility.yul\":4238:4239   */\n      0x00\n        /* \"#utility.yul\":4235:4236   */\n      dup1\n        /* \"#utility.yul\":4228:4240   */\n      revert\n        /* \"#utility.yul\":4252:4369   */\n    tag_131:\n        /* \"#utility.yul\":4361:4362   */\n      0x00\n        /* \"#utility.yul\":4358:4359   */\n      dup1\n        /* \"#utility.yul\":4351:4363   */\n      revert\n        /* \"#utility.yul\":4375:4555   */\n    tag_132:\n        /* \"#utility.yul\":4423:4500   */\n      0x4e487b7100000000000000000000000000000000000000000000000000000000\n        /* \"#utility.yul\":4420:4421   */\n      0x00\n        /* \"#utility.yul\":4413:4501   */\n      mstore\n        /* \"#utility.yul\":4520:4524   */\n      0x41\n        /* \"#utility.yul\":4517:4518   */\n      0x04\n        /* \"#utility.yul\":4510:4525   */\n      mstore\n        /* \"#utility.yul\":4544:4548   */\n      0x24\n        /* \"#utility.yul\":4541:4542   */\n      0x00\n        /* \"#utility.yul\":4534:4549   */\n      revert\n        /* \"#utility.yul\":4561:4842   */\n    tag_133:\n        /* \"#utility.yul\":4644:4671   */\n      tag_222\n        /* \"#utility.yul\":4666:4670   */\n      dup3\n        /* \"#utility.yul\":4644:4671   */\n      tag_121\n      jump\t// in\n    tag_222:\n        /* \"#utility.yul\":4636:4642   */\n      dup2\n        /* \"#utility.yul\":4632:4672   */\n      add\n        /* \"#utility.yul\":4774:4780   */\n      dup2\n        /* \"#utility.yul\":4762:4772   */\n      dup2\n        /* \"#utility.yul\":4759:4781   */\n      lt\n        /* \"#utility.yul\":4738:4756   */\n      0xffffffffffffffff\n        /* \"#utility.yul\":4726:4736   */\n      dup3\n        /* \"#utility.yul\":4723:4757   */\n      gt\n        /* \"#utility.yul\":4720:4782   */\n      or\n        /* \"#utility.yul\":4717:4805   */\n      iszero\n      tag_223\n      jumpi\n        /* \"#utility.yul\":4785:4803   */\n      tag_224\n      tag_132\n      jump\t// in\n    tag_224:\n        /* \"#utility.yul\":4717:4805   */\n    tag_223:\n        /* \"#utility.yul\":4825:4835   */\n      dup1\n        /* \"#utility.yul\":4821:4823   */\n      0x40\n        /* \"#utility.yul\":4814:4836   */\n      mstore\n        /* \"#utility.yul\":4604:4842   */\n      pop\n        /* \"#utility.yul\":4561:4842   */\n      pop\n      pop\n      jump\t// out\n        /* \"#utility.yul\":4848:4977   */\n    tag_134:\n        /* \"#utility.yul\":4882:4888   */\n      0x00\n        /* \"#utility.yul\":4909:4929   */\n      tag_226\n      tag_111\n      jump\t// in\n    tag_226:\n        /* \"#utility.yul\":4899:4929   */\n      swap1\n      pop\n        /* \"#utility.yul\":4938:4971   */\n      tag_227\n        /* \"#utility.yul\":4966:4970   */\n      dup3\n        /* \"#utility.yul\":4958:4964   */\n      dup3\n        /* \"#utility.yul\":4938:4971   */\n      tag_133\n      jump\t// in\n    tag_227:\n        /* \"#utility.yul\":4848:4977   */\n      swap2\n      swap1\n      pop\n      jump\t// out\n        /* \"#utility.yul\":4983:5291   */\n    tag_135:\n        /* \"#utility.yul\":5045:5049   */\n      0x00\n        /* \"#utility.yul\":5135:5153   */\n      0xffffffffffffffff\n        /* \"#utility.yul\":5127:5133   */\n      dup3\n        /* \"#utility.yul\":5124:5154   */\n      gt\n        /* \"#utility.yul\":5121:5177   */\n      iszero\n      tag_229\n      jumpi\n        /* \"#utility.yul\":5157:5175   */\n      tag_230\n      tag_132\n      jump\t// in\n    tag_230:\n        /* \"#utility.yul\":5121:5177   */\n    tag_229:\n        /* \"#utility.yul\":5195:5224   */\n      tag_231\n        /* \"#utility.yul\":5217:5223   */\n      dup3\n        /* \"#utility.yul\":5195:5224   */\n      tag_121\n      jump\t// in\n    tag_231:\n        /* \"#utility.yul\":5187:5224   */\n      swap1\n      pop\n        /* \"#utility.yul\":5279:5283   */\n      0x20\n        /* \"#utility.yul\":5273:5277   */\n      dup2\n        /* \"#utility.yul\":5269:5284   */\n      add\n        /* \"#utility.yul\":5261:5284   */\n      swap1\n      pop\n        /* \"#utility.yul\":4983:5291   */\n      swap2\n      swap1\n      pop\n      jump\t// out\n        /* \"#utility.yul\":5297:5445   */\n    tag_136:\n        /* \"#utility.yul\":5395:5401   */\n      dup3\n        /* \"#utility.yul\":5390:5393   */\n      dup2\n        /* \"#utility.yul\":5385:5388   */\n      dup4\n        /* \"#utility.yul\":5372:5402   */\n      calldatacopy\n        /* \"#utility.yul\":5436:5437   */\n      0x00\n        /* \"#utility.yul\":5427:5433   */\n      dup4\n        /* \"#utility.yul\":5422:5425   */\n      dup4\n        /* \"#utility.yul\":5418:5434   */\n      add\n        /* \"#utility.yul\":5411:5438   */\n      mstore\n        /* \"#utility.yul\":5297:5445   */\n      pop\n      pop\n      pop\n      jump\t// out\n        /* \"#utility.yul\":5451:5876   */\n    tag_137:\n        /* \"#utility.yul\":5529:5534   */\n      0x00\n        /* \"#utility.yul\":5554:5620   */\n      tag_234\n        /* \"#utility.yul\":5570:5619   */\n      tag_235\n        /* \"#utility.yul\":5612:5618   */\n      dup5\n        /* \"#utility.yul\":5570:5619   */\n      tag_135\n      jump\t// in\n    tag_235:\n        /* \"#utility.yul\":5554:5620   */\n      tag_134\n      jump\t// in\n    tag_234:\n        /* \"#utility.yul\":5545:5620   */\n      swap1\n      pop\n        /* \"#utility.yul\":5643:5649   */\n      dup3\n        /* \"#utility.yul\":5636:5641   */\n      dup2\n        /* \"#utility.yul\":5629:5650   */\n      mstore\n        /* \"#utility.yul\":5681:5685   */\n      0x20\n        /* \"#utility.yul\":5674:5679   */\n      dup2\n        /* \"#utility.yul\":5670:5686   */\n      add\n        /* \"#utility.yul\":5719:5722   */\n      dup5\n        /* \"#utility.yul\":5710:5716   */\n      dup5\n        /* \"#utility.yul\":5705:5708   */\n      dup5\n        /* \"#utility.yul\":5701:5717   */\n      add\n        /* \"#utility.yul\":5698:5723   */\n      gt\n        /* \"#utility.yul\":5695:5807   */\n      iszero\n      tag_236\n      jumpi\n        /* \"#utility.yul\":5726:5805   */\n      tag_237\n      tag_131\n      jump\t// in\n    tag_237:\n        /* \"#utility.yul\":5695:5807   */\n    tag_236:\n        /* \"#utility.yul\":5816:5870   */\n      tag_238\n        /* \"#utility.yul\":5863:5869   */\n      dup5\n        /* \"#utility.yul\":5858:5861   */\n      dup3\n        /* \"#utility.yul\":5853:5856   */\n      dup6\n        /* \"#utility.yul\":5816:5870   */\n      tag_136\n      jump\t// in\n    tag_238:\n        /* \"#utility.yul\":5535:5876   */\n      pop\n        /* \"#utility.yul\":5451:5876   */\n      swap4\n      swap3\n      pop\n      pop\n      pop\n      jump\t// out\n        /* \"#utility.yul\":5896:6236   */\n    tag_138:\n        /* \"#utility.yul\":5952:5957   */\n      0x00\n        /* \"#utility.yul\":6001:6004   */\n      dup3\n        /* \"#utility.yul\":5994:5998   */\n      0x1f\n        /* \"#utility.yul\":5986:5992   */\n      dup4\n        /* \"#utility.yul\":5982:5999   */\n      add\n        /* \"#utility.yul\":5978:6005   */\n      slt\n        /* \"#utility.yul\":5968:6090   */\n      tag_240\n      jumpi\n        /* \"#utility.yul\":6009:6088   */\n      tag_241\n      tag_130\n      jump\t// in\n    tag_241:\n        /* \"#utility.yul\":5968:6090   */\n    tag_240:\n        /* \"#utility.yul\":6126:6132   */\n      dup2\n        /* \"#utility.yul\":6113:6133   */\n      calldataload\n        /* \"#utility.yul\":6151:6230   */\n      tag_242\n        /* \"#utility.yul\":6226:6229   */\n      dup5\n        /* \"#utility.yul\":6218:6224   */\n      dup3\n        /* \"#utility.yul\":6211:6215   */\n      0x20\n        /* \"#utility.yul\":6203:6209   */\n      dup7\n        /* \"#utility.yul\":6199:6216   */\n      add\n        /* \"#utility.yul\":6151:6230   */\n      tag_137\n      jump\t// in\n    tag_242:\n        /* \"#utility.yul\":6142:6230   */\n      swap2\n      pop\n        /* \"#utility.yul\":5958:6236   */\n      pop\n        /* \"#utility.yul\":5896:6236   */\n      swap3\n      swap2\n      pop\n      pop\n      jump\t// out\n        /* \"#utility.yul\":6242:6364   */\n    tag_139:\n        /* \"#utility.yul\":6315:6339   */\n      tag_244\n        /* \"#utility.yul\":6333:6338   */\n      dup2\n        /* \"#utility.yul\":6315:6339   */\n      tag_128\n      jump\t// in\n    tag_244:\n        /* \"#utility.yul\":6308:6313   */\n      dup2\n        /* \"#utility.yul\":6305:6340   */\n      eq\n        /* \"#utility.yul\":6295:6358   */\n      tag_245\n      jumpi\n        /* \"#utility.yul\":6354:6355   */\n      0x00\n        /* \"#utility.yul\":6351:6352   */\n      dup1\n        /* \"#utility.yul\":6344:6356   */\n      revert\n        /* \"#utility.yul\":6295:6358   */\n    tag_245:\n        /* \"#utility.yul\":6242:6364   */\n      pop\n      jump\t// out\n        /* \"#utility.yul\":6370:6509   */\n    tag_140:\n        /* \"#utility.yul\":6416:6421   */\n      0x00\n        /* \"#utility.yul\":6454:6460   */\n      dup2\n        /* \"#utility.yul\":6441:6461   */\n      calldataload\n        /* \"#utility.yul\":6432:6461   */\n      swap1\n      pop\n        /* \"#utility.yul\":6470:6503   */\n      tag_247\n        /* \"#utility.yul\":6497:6502   */\n      dup2\n        /* \"#utility.yul\":6470:6503   */\n      tag_139\n      jump\t// in\n    tag_247:\n        /* \"#utility.yul\":6370:6509   */\n      swap3\n      swap2\n      pop\n      pop\n      jump\t// out\n        /* \"#utility.yul\":6515:7460   */\n    tag_26:\n        /* \"#utility.yul\":6611:6617   */\n      0x00\n        /* \"#utility.yul\":6619:6625   */\n      dup1\n        /* \"#utility.yul\":6627:6633   */\n      0x00\n        /* \"#utility.yul\":6635:6641   */\n      dup1\n        /* \"#utility.yul\":6684:6687   */\n      0x80\n        /* \"#utility.yul\":6672:6681   */\n      dup6\n        /* \"#utility.yul\":6663:6670   */\n      dup8\n        /* \"#utility.yul\":6659:6682   */\n      sub\n        /* \"#utility.yul\":6655:6688   */\n      slt\n        /* \"#utility.yul\":6652:6772   */\n      iszero\n      tag_249\n      jumpi\n        /* \"#utility.yul\":6691:6770   */\n      tag_250\n      tag_112\n      jump\t// in\n    tag_250:\n        /* \"#utility.yul\":6652:6772   */\n    tag_249:\n        /* \"#utility.yul\":6839:6840   */\n      0x00\n        /* \"#utility.yul\":6828:6837   */\n      dup6\n        /* \"#utility.yul\":6824:6841   */\n      add\n        /* \"#utility.yul\":6811:6842   */\n      calldataload\n        /* \"#utility.yul\":6869:6887   */\n      0xffffffffffffffff\n        /* \"#utility.yul\":6861:6867   */\n      dup2\n        /* \"#utility.yul\":6858:6888   */\n      gt\n        /* \"#utility.yul\":6855:6972   */\n      iszero\n      tag_251\n      jumpi\n        /* \"#utility.yul\":6891:6970   */\n      tag_252\n      tag_113\n      jump\t// in\n    tag_252:\n        /* \"#utility.yul\":6855:6972   */\n    tag_251:\n        /* \"#utility.yul\":6996:7059   */\n      tag_253\n        /* \"#utility.yul\":7051:7058   */\n      dup8\n        /* \"#utility.yul\":7042:7048   */\n      dup3\n        /* \"#utility.yul\":7031:7040   */\n      dup9\n        /* \"#utility.yul\":7027:7049   */\n      add\n        /* \"#utility.yul\":6996:7059   */\n      tag_138\n      jump\t// in\n    tag_253:\n        /* \"#utility.yul\":6986:7059   */\n      swap5\n      pop\n        /* \"#utility.yul\":6782:7069   */\n      pop\n        /* \"#utility.yul\":7108:7110   */\n      0x20\n        /* \"#utility.yul\":7134:7187   */\n      tag_254\n        /* \"#utility.yul\":7179:7186   */\n      dup8\n        /* \"#utility.yul\":7170:7176   */\n      dup3\n        /* \"#utility.yul\":7159:7168   */\n      dup9\n        /* \"#utility.yul\":7155:7177   */\n      add\n        /* \"#utility.yul\":7134:7187   */\n      tag_140\n      jump\t// in\n    tag_254:\n        /* \"#utility.yul\":7124:7187   */\n      swap4\n      pop\n        /* \"#utility.yul\":7079:7197   */\n      pop\n        /* \"#utility.yul\":7236:7238   */\n      0x40\n        /* \"#utility.yul\":7262:7315   */\n      tag_255\n        /* \"#utility.yul\":7307:7314   */\n      dup8\n        /* \"#utility.yul\":7298:7304   */\n      dup3\n        /* \"#utility.yul\":7287:7296   */\n      dup9\n        /* \"#utility.yul\":7283:7305   */\n      add\n        /* \"#utility.yul\":7262:7315   */\n      tag_140\n      jump\t// in\n    tag_255:\n        /* \"#utility.yul\":7252:7315   */\n      swap3\n      pop\n        /* \"#utility.yul\":7207:7325   */\n      pop\n        /* \"#utility.yul\":7364:7366   */\n      0x60\n        /* \"#utility.yul\":7390:7443   */\n      tag_256\n        /* \"#utility.yul\":7435:7442   */\n      dup8\n        /* \"#utility.yul\":7426:7432   */\n      dup3\n        /* \"#utility.yul\":7415:7424   */\n      dup9\n        /* \"#utility.yul\":7411:7433   */\n      add\n        /* \"#utility.yul\":7390:7443   */\n      tag_140\n      jump\t// in\n    tag_256:\n        /* \"#utility.yul\":7380:7443   */\n      swap2\n      pop\n        /* \"#utility.yul\":7335:7453   */\n      pop\n        /* \"#utility.yul\":6515:7460   */\n      swap3\n      swap6\n      swap2\n      swap5\n      pop\n      swap3\n      pop\n      jump\t// out\n        /* \"#utility.yul\":7466:7688   */\n    tag_35:\n        /* \"#utility.yul\":7559:7563   */\n      0x00\n        /* \"#utility.yul\":7597:7599   */\n      0x20\n        /* \"#utility.yul\":7586:7595   */\n      dup3\n        /* \"#utility.yul\":7582:7600   */\n      add\n        /* \"#utility.yul\":7574:7600   */\n      swap1\n      pop\n        /* \"#utility.yul\":7610:7681   */\n      tag_258\n        /* \"#utility.yul\":7678:7679   */\n      0x00\n        /* \"#utility.yul\":7667:7676   */\n      dup4\n        /* \"#utility.yul\":7663:7680   */\n      add\n        /* \"#utility.yul\":7654:7660   */\n      dup5\n        /* \"#utility.yul\":7610:7681   */\n      tag_117\n      jump\t// in\n    tag_258:\n        /* \"#utility.yul\":7466:7688   */\n      swap3\n      swap2\n      pop\n      pop\n      jump\t// out\n        /* \"#utility.yul\":7694:7916   */\n    tag_39:\n        /* \"#utility.yul\":7787:7791   */\n      0x00\n        /* \"#utility.yul\":7825:7827   */\n      0x20\n        /* \"#utility.yul\":7814:7823   */\n      dup3\n        /* \"#utility.yul\":7810:7828   */\n      add\n        /* \"#utility.yul\":7802:7828   */\n      swap1\n      pop\n        /* \"#utility.yul\":7838:7909   */\n      tag_260\n        /* \"#utility.yul\":7906:7907   */\n      0x00\n        /* \"#utility.yul\":7895:7904   */\n      dup4\n        /* \"#utility.yul\":7891:7908   */\n      add\n        /* \"#utility.yul\":7882:7888   */\n      dup5\n        /* \"#utility.yul\":7838:7909   */\n      tag_129\n      jump\t// in\n    tag_260:\n        /* \"#utility.yul\":7694:7916   */\n      swap3\n      swap2\n      pop\n      pop\n      jump\t// out\n        /* \"#utility.yul\":7922:8091   */\n    tag_141:\n        /* \"#utility.yul\":8062:8083   */\n      0x4e6f7420746865206469737472696275746f7200000000000000000000000000\n        /* \"#utility.yul\":8058:8059   */\n      0x00\n        /* \"#utility.yul\":8050:8056   */\n      dup3\n        /* \"#utility.yul\":8046:8060   */\n      add\n        /* \"#utility.yul\":8039:8084   */\n      mstore\n        /* \"#utility.yul\":7922:8091   */\n      pop\n      jump\t// out\n        /* \"#utility.yul\":8097:8463   */\n    tag_142:\n        /* \"#utility.yul\":8239:8242   */\n      0x00\n        /* \"#utility.yul\":8260:8327   */\n      tag_263\n        /* \"#utility.yul\":8324:8326   */\n      0x13\n        /* \"#utility.yul\":8319:8322   */\n      dup4\n        /* \"#utility.yul\":8260:8327   */\n      tag_119\n      jump\t// in\n    tag_263:\n        /* \"#utility.yul\":8253:8327   */\n      swap2\n      pop\n        /* \"#utility.yul\":8336:8429   */\n      tag_264\n        /* \"#utility.yul\":8425:8428   */\n      dup3\n        /* \"#utility.yul\":8336:8429   */\n      tag_141\n      jump\t// in\n    tag_264:\n        /* \"#utility.yul\":8454:8456   */\n      0x20\n        /* \"#utility.yul\":8449:8452   */\n      dup3\n        /* \"#utility.yul\":8445:8457   */\n      add\n        /* \"#utility.yul\":8438:8457   */\n      swap1\n      pop\n        /* \"#utility.yul\":8097:8463   */\n      swap2\n      swap1\n      pop\n      jump\t// out\n        /* \"#utility.yul\":8469:8888   */\n    tag_46:\n        /* \"#utility.yul\":8635:8639   */\n      0x00\n        /* \"#utility.yul\":8673:8675   */\n      0x20\n        /* \"#utility.yul\":8662:8671   */\n      dup3\n        /* \"#utility.yul\":8658:8676   */\n      add\n        /* \"#utility.yul\":8650:8676   */\n      swap1\n      pop\n        /* \"#utility.yul\":8722:8731   */\n      dup2\n        /* \"#utility.yul\":8716:8720   */\n      dup2\n        /* \"#utility.yul\":8712:8732   */\n      sub\n        /* \"#utility.yul\":8708:8709   */\n      0x00\n        /* \"#utility.yul\":8697:8706   */\n      dup4\n        /* \"#utility.yul\":8693:8710   */\n      add\n        /* \"#utility.yul\":8686:8733   */\n      mstore\n        /* \"#utility.yul\":8750:8881   */\n      tag_266\n        /* \"#utility.yul\":8876:8880   */\n      dup2\n        /* \"#utility.yul\":8750:8881   */\n      tag_142\n      jump\t// in\n    tag_266:\n        /* \"#utility.yul\":8742:8881   */\n      swap1\n      pop\n        /* \"#utility.yul\":8469:8888   */\n      swap2\n      swap1\n      pop\n      jump\t// out\n        /* \"#utility.yul\":8894:9115   */\n    tag_143:\n        /* \"#utility.yul\":9034:9068   */\n      0x50726f64756374206e6f7420726561647920666f722064697374726962757469\n        /* \"#utility.yul\":9030:9031   */\n      0x00\n        /* \"#utility.yul\":9022:9028   */\n      dup3\n        /* \"#utility.yul\":9018:9032   */\n      add\n        /* \"#utility.yul\":9011:9069   */\n      mstore\n        /* \"#utility.yul\":9103:9107   */\n      0x6f6e000000000000000000000000000000000000000000000000000000000000\n        /* \"#utility.yul\":9098:9100   */\n      0x20\n        /* \"#utility.yul\":9090:9096   */\n      dup3\n        /* \"#utility.yul\":9086:9101   */\n      add\n        /* \"#utility.yul\":9079:9108   */\n      mstore\n        /* \"#utility.yul\":8894:9115   */\n      pop\n      jump\t// out\n        /* \"#utility.yul\":9121:9487   */\n    tag_144:\n        /* \"#utility.yul\":9263:9266   */\n      0x00\n        /* \"#utility.yul\":9284:9351   */\n      tag_269\n        /* \"#utility.yul\":9348:9350   */\n      0x22\n        /* \"#utility.yul\":9343:9346   */\n      dup4\n        /* \"#utility.yul\":9284:9351   */\n      tag_119\n      jump\t// in\n    tag_269:\n        /* \"#utility.yul\":9277:9351   */\n      swap2\n      pop\n        /* \"#utility.yul\":9360:9453   */\n      tag_270\n        /* \"#utility.yul\":9449:9452   */\n      dup3\n        /* \"#utility.yul\":9360:9453   */\n      tag_143\n      jump\t// in\n    tag_270:\n        /* \"#utility.yul\":9478:9480   */\n      0x40\n        /* \"#utility.yul\":9473:9476   */\n      dup3\n        /* \"#utility.yul\":9469:9481   */\n      add\n        /* \"#utility.yul\":9462:9481   */\n      swap1\n      pop\n        /* \"#utility.yul\":9121:9487   */\n      swap2\n      swap1\n      pop\n      jump\t// out\n        /* \"#utility.yul\":9493:9912   */\n    tag_55:\n        /* \"#utility.yul\":9659:9663   */\n      0x00\n        /* \"#utility.yul\":9697:9699   */\n      0x20\n        /* \"#utility.yul\":9686:9695   */\n      dup3\n        /* \"#utility.yul\":9682:9700   */\n      add\n        /* \"#utility.yul\":9674:9700   */\n      swap1\n      pop\n        /* \"#utility.yul\":9746:9755   */\n      dup2\n        /* \"#utility.yul\":9740:9744   */\n      dup2\n        /* \"#utility.yul\":9736:9756   */\n      sub\n        /* \"#utility.yul\":9732:9733   */\n      0x00\n        /* \"#utility.yul\":9721:9730   */\n      dup4\n        /* \"#utility.yul\":9717:9734   */\n      add\n        /* \"#utility.yul\":9710:9757   */\n      mstore\n        /* \"#utility.yul\":9774:9905   */\n      tag_272\n        /* \"#utility.yul\":9900:9904   */\n      dup2\n        /* \"#utility.yul\":9774:9905   */\n      tag_144\n      jump\t// in\n    tag_272:\n        /* \"#utility.yul\":9766:9905   */\n      swap1\n      pop\n        /* \"#utility.yul\":9493:9912   */\n      swap2\n      swap1\n      pop\n      jump\t// out\n        /* \"#utility.yul\":9918:10084   */\n    tag_145:\n        /* \"#utility.yul\":10058:10076   */\n      0x4e6f742074686520737570706c69657200000000000000000000000000000000\n        /* \"#utility.yul\":10054:10055   */\n      0x00\n        /* \"#utility.yul\":10046:10052   */\n      dup3\n        /* \"#utility.yul\":10042:10056   */\n      add\n        /* \"#utility.yul\":10035:10077   */\n      mstore\n        /* \"#utility.yul\":9918:10084   */\n      pop\n      jump\t// out\n        /* \"#utility.yul\":10090:10456   */\n    tag_146:\n        /* \"#utility.yul\":10232:10235   */\n      0x00\n        /* \"#utility.yul\":10253:10320   */\n      tag_275\n        /* \"#utility.yul\":10317:10319   */\n      0x10\n        /* \"#utility.yul\":10312:10315   */\n      dup4\n        /* \"#utility.yul\":10253:10320   */\n      tag_119\n      jump\t// in\n    tag_275:\n        /* \"#utility.yul\":10246:10320   */\n      swap2\n      pop\n        /* \"#utility.yul\":10329:10422   */\n      tag_276\n        /* \"#utility.yul\":10418:10421   */\n      dup3\n        /* \"#utility.yul\":10329:10422   */\n      tag_145\n      jump\t// in\n    tag_276:\n        /* \"#utility.yul\":10447:10449   */\n      0x20\n        /* \"#utility.yul\":10442:10445   */\n      dup3\n        /* \"#utility.yul\":10438:10450   */\n      add\n        /* \"#utility.yul\":10431:10450   */\n      swap1\n      pop\n        /* \"#utility.yul\":10090:10456   */\n      swap2\n      swap1\n      pop\n      jump\t// out\n        /* \"#utility.yul\":10462:10881   */\n    tag_61:\n        /* \"#utility.yul\":10628:10632   */\n      0x00\n        /* \"#utility.yul\":10666:10668   */\n      0x20\n        /* \"#utility.yul\":10655:10664   */\n      dup3\n        /* \"#utility.yul\":10651:10669   */\n      add\n        /* \"#utility.yul\":10643:10669   */\n      swap1\n      pop\n        /* \"#utility.yul\":10715:10724   */\n      dup2\n        /* \"#utility.yul\":10709:10713   */\n      dup2\n        /* \"#utility.yul\":10705:10725   */\n      sub\n        /* \"#utility.yul\":10701:10702   */\n      0x00\n        /* \"#utility.yul\":10690:10699   */\n      dup4\n        /* \"#utility.yul\":10686:10703   */\n      add\n        /* \"#utility.yul\":10679:10726   */\n      mstore\n        /* \"#utility.yul\":10743:10874   */\n      tag_278\n        /* \"#utility.yul\":10869:10873   */\n      dup2\n        /* \"#utility.yul\":10743:10874   */\n      tag_146\n      jump\t// in\n    tag_278:\n        /* \"#utility.yul\":10735:10874   */\n      swap1\n      pop\n        /* \"#utility.yul\":10462:10881   */\n      swap2\n      swap1\n      pop\n      jump\t// out\n        /* \"#utility.yul\":10887:11065   */\n    tag_147:\n        /* \"#utility.yul\":11027:11057   */\n      0x50726f64756374206e6f7420726561647920666f7220737570706c7900000000\n        /* \"#utility.yul\":11023:11024   */\n      0x00\n        /* \"#utility.yul\":11015:11021   */\n      dup3\n        /* \"#utility.yul\":11011:11025   */\n      add\n        /* \"#utility.yul\":11004:11058   */\n      mstore\n        /* \"#utility.yul\":10887:11065   */\n      pop\n      jump\t// out\n        /* \"#utility.yul\":11071:11437   */\n    tag_148:\n        /* \"#utility.yul\":11213:11216   */\n      0x00\n        /* \"#utility.yul\":11234:11301   */\n      tag_281\n        /* \"#utility.yul\":11298:11300   */\n      0x1c\n        /* \"#utility.yul\":11293:11296   */\n      dup4\n        /* \"#utility.yul\":11234:11301   */\n      tag_119\n      jump\t// in\n    tag_281:\n        /* \"#utility.yul\":11227:11301   */\n      swap2\n      pop\n        /* \"#utility.yul\":11310:11403   */\n      tag_282\n        /* \"#utility.yul\":11399:11402   */\n      dup3\n        /* \"#utility.yul\":11310:11403   */\n      tag_147\n      jump\t// in\n    tag_282:\n        /* \"#utility.yul\":11428:11430   */\n      0x20\n        /* \"#utility.yul\":11423:11426   */\n      dup3\n        /* \"#utility.yul\":11419:11431   */\n      add\n        /* \"#utility.yul\":11412:11431   */\n      swap1\n      pop\n        /* \"#utility.yul\":11071:11437   */\n      swap2\n      swap1\n      pop\n      jump\t// out\n        /* \"#utility.yul\":11443:11862   */\n    tag_69:\n        /* \"#utility.yul\":11609:11613   */\n      0x00\n        /* \"#utility.yul\":11647:11649   */\n      0x20\n        /* \"#utility.yul\":11636:11645   */\n      dup3\n        /* \"#utility.yul\":11632:11650   */\n      add\n        /* \"#utility.yul\":11624:11650   */\n      swap1\n      pop\n        /* \"#utility.yul\":11696:11705   */\n      dup2\n        /* \"#utility.yul\":11690:11694   */\n      dup2\n        /* \"#utility.yul\":11686:11706   */\n      sub\n        /* \"#utility.yul\":11682:11683   */\n      0x00\n        /* \"#utility.yul\":11671:11680   */\n      dup4\n        /* \"#utility.yul\":11667:11684   */\n      add\n        /* \"#utility.yul\":11660:11707   */\n      mstore\n        /* \"#utility.yul\":11724:11855   */\n      tag_284\n        /* \"#utility.yul\":11850:11854   */\n      dup2\n        /* \"#utility.yul\":11724:11855   */\n      tag_148\n      jump\t// in\n    tag_284:\n        /* \"#utility.yul\":11716:11855   */\n      swap1\n      pop\n        /* \"#utility.yul\":11443:11862   */\n      swap2\n      swap1\n      pop\n      jump\t// out\n        /* \"#utility.yul\":11868:12048   */\n    tag_149:\n        /* \"#utility.yul\":11916:11993   */\n      0x4e487b7100000000000000000000000000000000000000000000000000000000\n        /* \"#utility.yul\":11913:11914   */\n      0x00\n        /* \"#utility.yul\":11906:11994   */\n      mstore\n        /* \"#utility.yul\":12013:12017   */\n      0x22\n        /* \"#utility.yul\":12010:12011   */\n      0x04\n        /* \"#utility.yul\":12003:12018   */\n      mstore\n        /* \"#utility.yul\":12037:12041   */\n      0x24\n        /* \"#utility.yul\":12034:12035   */\n      0x00\n        /* \"#utility.yul\":12027:12042   */\n      revert\n        /* \"#utility.yul\":12054:12374   */\n    tag_73:\n        /* \"#utility.yul\":12098:12104   */\n      0x00\n        /* \"#utility.yul\":12135:12136   */\n      0x02\n        /* \"#utility.yul\":12129:12133   */\n      dup3\n        /* \"#utility.yul\":12125:12137   */\n      div\n        /* \"#utility.yul\":12115:12137   */\n      swap1\n      pop\n        /* \"#utility.yul\":12182:12183   */\n      0x01\n        /* \"#utility.yul\":12176:12180   */\n      dup3\n        /* \"#utility.yul\":12172:12184   */\n      and\n        /* \"#utility.yul\":12203:12221   */\n      dup1\n        /* \"#utility.yul\":12193:12274   */\n      tag_287\n      jumpi\n        /* \"#utility.yul\":12259:12263   */\n      0x7f\n        /* \"#utility.yul\":12251:12257   */\n      dup3\n        /* \"#utility.yul\":12247:12264   */\n      and\n        /* \"#utility.yul\":12237:12264   */\n      swap2\n      pop\n        /* \"#utility.yul\":12193:12274   */\n    tag_287:\n        /* \"#utility.yul\":12321:12323   */\n      0x20\n        /* \"#utility.yul\":12313:12319   */\n      dup3\n        /* \"#utility.yul\":12310:12324   */\n      lt\n        /* \"#utility.yul\":12290:12308   */\n      dup2\n        /* \"#utility.yul\":12287:12325   */\n      sub\n        /* \"#utility.yul\":12284:12368   */\n      tag_288\n      jumpi\n        /* \"#utility.yul\":12340:12358   */\n      tag_289\n      tag_149\n      jump\t// in\n    tag_289:\n        /* \"#utility.yul\":12284:12368   */\n    tag_288:\n        /* \"#utility.yul\":12105:12374   */\n      pop\n        /* \"#utility.yul\":12054:12374   */\n      swap2\n      swap1\n      pop\n      jump\t// out\n        /* \"#utility.yul\":12380:12521   */\n    tag_150:\n        /* \"#utility.yul\":12429:12433   */\n      0x00\n        /* \"#utility.yul\":12452:12455   */\n      dup2\n        /* \"#utility.yul\":12444:12455   */\n      swap1\n      pop\n        /* \"#utility.yul\":12475:12478   */\n      dup2\n        /* \"#utility.yul\":12472:12473   */\n      0x00\n        /* \"#utility.yul\":12465:12479   */\n      mstore\n        /* \"#utility.yul\":12509:12513   */\n      0x20\n        /* \"#utility.yul\":12506:12507   */\n      0x00\n        /* \"#utility.yul\":12496:12514   */\n      keccak256\n        /* \"#utility.yul\":12488:12514   */\n      swap1\n      pop\n        /* \"#utility.yul\":12380:12521   */\n      swap2\n      swap1\n      pop\n      jump\t// out\n        /* \"#utility.yul\":12527:12620   */\n    tag_151:\n        /* \"#utility.yul\":12564:12570   */\n      0x00\n        /* \"#utility.yul\":12611:12613   */\n      0x20\n        /* \"#utility.yul\":12606:12608   */\n      0x1f\n        /* \"#utility.yul\":12599:12604   */\n      dup4\n        /* \"#utility.yul\":12595:12609   */\n      add\n        /* \"#utility.yul\":12591:12614   */\n      div\n        /* \"#utility.yul\":12581:12614   */\n      swap1\n      pop\n        /* \"#utility.yul\":12527:12620   */\n      swap2\n      swap1\n      pop\n      jump\t// out\n        /* \"#utility.yul\":12626:12733   */\n    tag_152:\n        /* \"#utility.yul\":12670:12678   */\n      0x00\n        /* \"#utility.yul\":12720:12725   */\n      dup3\n        /* \"#utility.yul\":12714:12718   */\n      dup3\n        /* \"#utility.yul\":12710:12726   */\n      shl\n        /* \"#utility.yul\":12689:12726   */\n      swap1\n      pop\n        /* \"#utility.yul\":12626:12733   */\n      swap3\n      swap2\n      pop\n      pop\n      jump\t// out\n        /* \"#utility.yul\":12739:13132   */\n    tag_153:\n        /* \"#utility.yul\":12808:12814   */\n      0x00\n        /* \"#utility.yul\":12858:12859   */\n      0x08\n        /* \"#utility.yul\":12846:12856   */\n      dup4\n        /* \"#utility.yul\":12842:12860   */\n      mul\n        /* \"#utility.yul\":12881:12978   */\n      tag_294\n        /* \"#utility.yul\":12911:12977   */\n      0xffffffffffffffffffffffffffffffffffffffffffffffffffffffffffffffff\n        /* \"#utility.yul\":12900:12909   */\n      dup3\n        /* \"#utility.yul\":12881:12978   */\n      tag_152\n      jump\t// in\n    tag_294:\n        /* \"#utility.yul\":12999:13038   */\n      tag_295\n        /* \"#utility.yul\":13029:13037   */\n      dup7\n        /* \"#utility.yul\":13018:13027   */\n      dup4\n        /* \"#utility.yul\":12999:13038   */\n      tag_152\n      jump\t// in\n    tag_295:\n        /* \"#utility.yul\":12987:13038   */\n      swap6\n      pop\n        /* \"#utility.yul\":13071:13075   */\n      dup1\n        /* \"#utility.yul\":13067:13076   */\n      not\n        /* \"#utility.yul\":13060:13065   */\n      dup5\n        /* \"#utility.yul\":13056:13077   */\n      and\n        /* \"#utility.yul\":13047:13077   */\n      swap4\n      pop\n        /* \"#utility.yul\":13120:13124   */\n      dup1\n        /* \"#utility.yul\":13110:13118   */\n      dup7\n        /* \"#utility.yul\":13106:13125   */\n      and\n        /* \"#utility.yul\":13099:13104   */\n      dup5\n        /* \"#utility.yul\":13096:13126   */\n      or\n        /* \"#utility.yul\":13086:13126   */\n      swap3\n      pop\n        /* \"#utility.yul\":12815:13132   */\n      pop\n      pop\n        /* \"#utility.yul\":12739:13132   */\n      swap4\n      swap3\n      pop\n      pop\n      pop\n      jump\t// out\n        /* \"#utility.yul\":13138:13198   */\n    tag_154:\n        /* \"#utility.yul\":13166:13169   */\n      0x00\n        /* \"#utility.yul\":13187:13192   */\n      dup2\n        /* \"#utility.yul\":13180:13192   */\n      swap1\n      pop\n        /* \"#utility.yul\":13138:13198   */\n      swap2\n      swap1\n      pop\n      jump\t// out\n        /* \"#utility.yul\":13204:13346   */\n    tag_155:\n        /* \"#utility.yul\":13254:13263   */\n      0x00\n        /* \"#utility.yul\":13287:13340   */\n      tag_298\n        /* \"#utility.yul\":13305:13339   */\n      tag_299\n        /* \"#utility.yul\":13314:13338   */\n      tag_300\n        /* \"#utility.yul\":13332:13337   */\n      dup5\n        /* \"#utility.yul\":13314:13338   */\n      tag_114\n      jump\t// in\n    tag_300:\n        /* \"#utility.yul\":13305:13339   */\n      tag_154\n      jump\t// in\n    tag_299:\n        /* \"#utility.yul\":13287:13340   */\n      tag_114\n      jump\t// in\n    tag_298:\n        /* \"#utility.yul\":13274:13340   */\n      swap1\n      pop\n        /* \"#utility.yul\":13204:13346   */\n      swap2\n      swap1\n      pop\n      jump\t// out\n        /* \"#utility.yul\":13352:13427   */\n    tag_156:\n        /* \"#utility.yul\":13395:13398   */\n      0x00\n        /* \"#utility.yul\":13416:13421   */\n      dup2\n        /* \"#utility.yul\":13409:13421   */\n      swap1\n      pop\n        /* \"#utility.yul\":13352:13427   */\n      swap2\n      swap1\n      pop\n      jump\t// out\n        /* \"#utility.yul\":13433:13702   */\n    tag_157:\n        /* \"#utility.yul\":13543:13582   */\n      tag_303\n        /* \"#utility.yul\":13574:13581   */\n      dup4\n        /* \"#utility.yul\":13543:13582   */\n      tag_155\n      jump\t// in\n    tag_303:\n        /* \"#utility.yul\":13604:13695   */\n      tag_304\n        /* \"#utility.yul\":13653:13694   */\n      tag_305\n        /* \"#utility.yul\":13677:13693   */\n      dup3\n        /* \"#utility.yul\":13653:13694   */\n      tag_156\n      jump\t// in\n    tag_305:\n        /* \"#utility.yul\":13645:13651   */\n      dup5\n        /* \"#utility.yul\":13638:13642   */\n      dup5\n        /* \"#utility.yul\":13632:13643   */\n      sload\n        /* \"#utility.yul\":13604:13695   */\n      tag_153\n      jump\t// in\n    tag_304:\n        /* \"#utility.yul\":13598:13602   */\n      dup3\n        /* \"#utility.yul\":13591:13696   */\n      sstore\n        /* \"#utility.yul\":13509:13702   */\n      pop\n        /* \"#utility.yul\":13433:13702   */\n      pop\n      pop\n      pop\n      jump\t// out\n        /* \"#utility.yul\":13708:13781   */\n    tag_158:\n        /* \"#utility.yul\":13753:13756   */\n      0x00\n        /* \"#utility.yul\":13708:13781   */\n      swap1\n      jump\t// out\n        /* \"#utility.yul\":13787:13976   */\n    tag_159:\n        /* \"#utility.yul\":13864:13896   */\n      tag_308\n      tag_158\n      jump\t// in\n    tag_308:\n        /* \"#utility.yul\":13905:13970   */\n      tag_309\n        /* \"#utility.yul\":13963:13969   */\n      dup2\n        /* \"#utility.yul\":13955:13961   */\n      dup5\n        /* \"#utility.yul\":13949:13953   */\n      dup5\n        /* \"#utility.yul\":13905:13970   */\n      tag_157\n      jump\t// in\n    tag_309:\n        /* \"#utility.yul\":13840:13976   */\n      pop\n        /* \"#utility.yul\":13787:13976   */\n      pop\n      pop\n      jump\t// out\n        /* \"#utility.yul\":13982:14168   */\n    tag_160:\n        /* \"#utility.yul\":14042:14162   */\n    tag_311:\n        /* \"#utility.yul\":14059:14062   */\n      dup2\n        /* \"#utility.yul\":14052:14057   */\n      dup2\n        /* \"#utility.yul\":14049:14063   */\n      lt\n        /* \"#utility.yul\":14042:14162   */\n      iszero\n      tag_313\n      jumpi\n        /* \"#utility.yul\":14113:14152   */\n      tag_314\n        /* \"#utility.yul\":14150:14151   */\n      0x00\n        /* \"#utility.yul\":14143:14148   */\n      dup3\n        /* \"#utility.yul\":14113:14152   */\n      tag_159\n      jump\t// in\n    tag_314:\n        /* \"#utility.yul\":14086:14087   */\n      0x01\n        /* \"#utility.yul\":14079:14084   */\n      dup2\n        /* \"#utility.yul\":14075:14088   */\n      add\n        /* \"#utility.yul\":14066:14088   */\n      swap1\n      pop\n        /* \"#utility.yul\":14042:14162   */\n      jump(tag_311)\n    tag_313:\n        /* \"#utility.yul\":13982:14168   */\n      pop\n      pop\n      jump\t// out\n        /* \"#utility.yul\":14174:14717   */\n    tag_161:\n        /* \"#utility.yul\":14275:14277   */\n      0x1f\n        /* \"#utility.yul\":14270:14273   */\n      dup3\n        /* \"#utility.yul\":14267:14278   */\n      gt\n        /* \"#utility.yul\":14264:14710   */\n      iszero\n      tag_316\n      jumpi\n        /* \"#utility.yul\":14309:14347   */\n      tag_317\n        /* \"#utility.yul\":14341:14346   */\n      dup2\n        /* \"#utility.yul\":14309:14347   */\n      tag_150\n      jump\t// in\n    tag_317:\n        /* \"#utility.yul\":14393:14422   */\n      tag_318\n        /* \"#utility.yul\":14411:14421   */\n      dup5\n        /* \"#utility.yul\":14393:14422   */\n      tag_151\n      jump\t// in\n    tag_318:\n        /* \"#utility.yul\":14383:14391   */\n      dup2\n        /* \"#utility.yul\":14379:14423   */\n      add\n        /* \"#utility.yul\":14576:14578   */\n      0x20\n        /* \"#utility.yul\":14564:14574   */\n      dup6\n        /* \"#utility.yul\":14561:14579   */\n      lt\n        /* \"#utility.yul\":14558:14607   */\n      iszero\n      tag_319\n      jumpi\n        /* \"#utility.yul\":14597:14605   */\n      dup2\n        /* \"#utility.yul\":14582:14605   */\n      swap1\n      pop\n        /* \"#utility.yul\":14558:14607   */\n    tag_319:\n        /* \"#utility.yul\":14620:14700   */\n      tag_320\n        /* \"#utility.yul\":14676:14698   */\n      tag_321\n        /* \"#utility.yul\":14694:14697   */\n      dup6\n        /* \"#utility.yul\":14676:14698   */\n      tag_151\n      jump\t// in\n    tag_321:\n        /* \"#utility.yul\":14666:14674   */\n      dup4\n        /* \"#utility.yul\":14662:14699   */\n      add\n        /* \"#utility.yul\":14649:14660   */\n      dup3\n        /* \"#utility.yul\":14620:14700   */\n      tag_160\n      jump\t// in\n    tag_320:\n        /* \"#utility.yul\":14279:14710   */\n      pop\n      pop\n        /* \"#utility.yul\":14264:14710   */\n    tag_316:\n        /* \"#utility.yul\":14174:14717   */\n      pop\n      pop\n      pop\n      jump\t// out\n        /* \"#utility.yul\":14723:14840   */\n    tag_162:\n        /* \"#utility.yul\":14777:14785   */\n      0x00\n        /* \"#utility.yul\":14827:14832   */\n      dup3\n        /* \"#utility.yul\":14821:14825   */\n      dup3\n        /* \"#utility.yul\":14817:14833   */\n      shr\n        /* \"#utility.yul\":14796:14833   */\n      swap1\n      pop\n        /* \"#utility.yul\":14723:14840   */\n      swap3\n      swap2\n      pop\n      pop\n      jump\t// out\n        /* \"#utility.yul\":14846:15015   */\n    tag_163:\n        /* \"#utility.yul\":14890:14896   */\n      0x00\n        /* \"#utility.yul\":14923:14974   */\n      tag_324\n        /* \"#utility.yul\":14971:14972   */\n      0x00\n        /* \"#utility.yul\":14967:14973   */\n      not\n        /* \"#utility.yul\":14959:14964   */\n      dup5\n        /* \"#utility.yul\":14956:14957   */\n      0x08\n        /* \"#utility.yul\":14952:14965   */\n      mul\n        /* \"#utility.yul\":14923:14974   */\n      tag_162\n      jump\t// in\n    tag_324:\n        /* \"#utility.yul\":14919:14975   */\n      not\n        /* \"#utility.yul\":15004:15008   */\n      dup1\n        /* \"#utility.yul\":14998:15002   */\n      dup4\n        /* \"#utility.yul\":14994:15009   */\n      and\n        /* \"#utility.yul\":14984:15009   */\n      swap2\n      pop\n        /* \"#utility.yul\":14897:15015   */\n      pop\n        /* \"#utility.yul\":14846:15015   */\n      swap3\n      swap2\n      pop\n      pop\n      jump\t// out\n        /* \"#utility.yul\":15020:15315   */\n    tag_164:\n        /* \"#utility.yul\":15096:15100   */\n      0x00\n        /* \"#utility.yul\":15242:15271   */\n      tag_326\n        /* \"#utility.yul\":15267:15270   */\n      dup4\n        /* \"#utility.yul\":15261:15265   */\n      dup4\n        /* \"#utility.yul\":15242:15271   */\n      tag_163\n      jump\t// in\n    tag_326:\n        /* \"#utility.yul\":15234:15271   */\n      swap2\n      pop\n        /* \"#utility.yul\":15304:15307   */\n      dup3\n        /* \"#utility.yul\":15301:15302   */\n      0x02\n        /* \"#utility.yul\":15297:15308   */\n      mul\n        /* \"#utility.yul\":15291:15295   */\n      dup3\n        /* \"#utility.yul\":15288:15309   */\n      or\n        /* \"#utility.yul\":15280:15309   */\n      swap1\n      pop\n        /* \"#utility.yul\":15020:15315   */\n      swap3\n      swap2\n      pop\n      pop\n      jump\t// out\n        /* \"#utility.yul\":15320:16715   */\n    tag_82:\n        /* \"#utility.yul\":15437:15474   */\n      tag_328\n        /* \"#utility.yul\":15470:15473   */\n      dup3\n        /* \"#utility.yul\":15437:15474   */\n      tag_118\n      jump\t// in\n    tag_328:\n        /* \"#utility.yul\":15539:15557   */\n      0xffffffffffffffff\n        /* \"#utility.yul\":15531:15537   */\n      dup2\n        /* \"#utility.yul\":15528:15558   */\n      gt\n        /* \"#utility.yul\":15525:15581   */\n      iszero\n      tag_329\n      jumpi\n        /* \"#utility.yul\":15561:15579   */\n      tag_330\n      tag_132\n      jump\t// in\n    tag_330:\n        /* \"#utility.yul\":15525:15581   */\n    tag_329:\n        /* \"#utility.yul\":15605:15643   */\n      tag_331\n        /* \"#utility.yul\":15637:15641   */\n      dup3\n        /* \"#utility.yul\":15631:15642   */\n      sload\n        /* \"#utility.yul\":15605:15643   */\n      tag_73\n      jump\t// in\n    tag_331:\n        /* \"#utility.yul\":15690:15757   */\n      tag_332\n        /* \"#utility.yul\":15750:15756   */\n      dup3\n        /* \"#utility.yul\":15742:15748   */\n      dup3\n        /* \"#utility.yul\":15736:15740   */\n      dup6\n        /* \"#utility.yul\":15690:15757   */\n      tag_161\n      jump\t// in\n    tag_332:\n        /* \"#utility.yul\":15784:15785   */\n      0x00\n        /* \"#utility.yul\":15808:15812   */\n      0x20\n        /* \"#utility.yul\":15795:15812   */\n      swap1\n      pop\n        /* \"#utility.yul\":15840:15842   */\n      0x1f\n        /* \"#utility.yul\":15832:15838   */\n      dup4\n        /* \"#utility.yul\":15829:15843   */\n      gt\n        /* \"#utility.yul\":15857:15858   */\n      0x01\n        /* \"#utility.yul\":15852:16470   */\n      dup2\n      eq\n      tag_334\n      jumpi\n        /* \"#utility.yul\":16514:16515   */\n      0x00\n        /* \"#utility.yul\":16531:16537   */\n      dup5\n        /* \"#utility.yul\":16528:16605   */\n      iszero\n      tag_335\n      jumpi\n        /* \"#utility.yul\":16580:16589   */\n      dup3\n        /* \"#utility.yul\":16575:16578   */\n      dup8\n        /* \"#utility.yul\":16571:16590   */\n      add\n        /* \"#utility.yul\":16565:16591   */\n      mload\n        /* \"#utility.yul\":16556:16591   */\n      swap1\n      pop\n        /* \"#utility.yul\":16528:16605   */\n    tag_335:\n        /* \"#utility.yul\":16631:16698   */\n      tag_336\n        /* \"#utility.yul\":16691:16697   */\n      dup6\n        /* \"#utility.yul\":16684:16689   */\n      dup3\n        /* \"#utility.yul\":16631:16698   */\n      tag_164\n      jump\t// in\n    tag_336:\n        /* \"#utility.yul\":16625:16629   */\n      dup7\n        /* \"#utility.yul\":16618:16699   */\n      sstore\n        /* \"#utility.yul\":16487:16709   */\n      pop\n        /* \"#utility.yul\":15822:16709   */\n      jump(tag_333)\n        /* \"#utility.yul\":15852:16470   */\n    tag_334:\n        /* \"#utility.yul\":15904:15908   */\n      0x1f\n        /* \"#utility.yul\":15900:15909   */\n      not\n        /* \"#utility.yul\":15892:15898   */\n      dup5\n        /* \"#utility.yul\":15888:15910   */\n      and\n        /* \"#utility.yul\":15938:15975   */\n      tag_337\n        /* \"#utility.yul\":15970:15974   */\n      dup7\n        /* \"#utility.yul\":15938:15975   */\n      tag_150\n      jump\t// in\n    tag_337:\n        /* \"#utility.yul\":15997:15998   */\n      0x00\n        /* \"#utility.yul\":16011:16219   */\n    tag_338:\n        /* \"#utility.yul\":16025:16032   */\n      dup3\n        /* \"#utility.yul\":16022:16023   */\n      dup2\n        /* \"#utility.yul\":16019:16033   */\n      lt\n        /* \"#utility.yul\":16011:16219   */\n      iszero\n      tag_340\n      jumpi\n        /* \"#utility.yul\":16104:16113   */\n      dup5\n        /* \"#utility.yul\":16099:16102   */\n      dup10\n        /* \"#utility.yul\":16095:16114   */\n      add\n        /* \"#utility.yul\":16089:16115   */\n      mload\n        /* \"#utility.yul\":16081:16087   */\n      dup3\n        /* \"#utility.yul\":16074:16116   */\n      sstore\n        /* \"#utility.yul\":16155:16156   */\n      0x01\n        /* \"#utility.yul\":16147:16153   */\n      dup3\n        /* \"#utility.yul\":16143:16157   */\n      add\n        /* \"#utility.yul\":16133:16157   */\n      swap2\n      pop\n        /* \"#utility.yul\":16202:16204   */\n      0x20\n        /* \"#utility.yul\":16191:16200   */\n      dup6\n        /* \"#utility.yul\":16187:16205   */\n      add\n        /* \"#utility.yul\":16174:16205   */\n      swap5\n      pop\n        /* \"#utility.yul\":16048:16052   */\n      0x20\n        /* \"#utility.yul\":16045:16046   */\n      dup2\n        /* \"#utility.yul\":16041:16053   */\n      add\n        /* \"#utility.yul\":16036:16053   */\n      swap1\n      pop\n        /* \"#utility.yul\":16011:16219   */\n      jump(tag_338)\n    tag_340:\n        /* \"#utility.yul\":16247:16253   */\n      dup7\n        /* \"#utility.yul\":16238:16245   */\n      dup4\n        /* \"#utility.yul\":16235:16254   */\n      lt\n        /* \"#utility.yul\":16232:16411   */\n      iszero\n      tag_341\n      jumpi\n        /* \"#utility.yul\":16305:16314   */\n      dup5\n        /* \"#utility.yul\":16300:16303   */\n      dup10\n        /* \"#utility.yul\":16296:16315   */\n      add\n        /* \"#utility.yul\":16290:16316   */\n      mload\n        /* \"#utility.yul\":16348:16396   */\n      tag_342\n        /* \"#utility.yul\":16390:16394   */\n      0x1f\n        /* \"#utility.yul\":16382:16388   */\n      dup10\n        /* \"#utility.yul\":16378:16395   */\n      and\n        /* \"#utility.yul\":16367:16376   */\n      dup3\n        /* \"#utility.yul\":16348:16396   */\n      tag_163\n      jump\t// in\n    tag_342:\n        /* \"#utility.yul\":16340:16346   */\n      dup4\n        /* \"#utility.yul\":16333:16397   */\n      sstore\n        /* \"#utility.yul\":16255:16411   */\n      pop\n        /* \"#utility.yul\":16232:16411   */\n    tag_341:\n        /* \"#utility.yul\":16457:16458   */\n      0x01\n        /* \"#utility.yul\":16453:16454   */\n      0x02\n        /* \"#utility.yul\":16445:16451   */\n      dup9\n        /* \"#utility.yul\":16441:16455   */\n      mul\n        /* \"#utility.yul\":16437:16459   */\n      add\n        /* \"#utility.yul\":16431:16435   */\n      dup9\n        /* \"#utility.yul\":16424:16460   */\n      sstore\n        /* \"#utility.yul\":15859:16470   */\n      pop\n      pop\n      pop\n        /* \"#utility.yul\":15822:16709   */\n    tag_333:\n      pop\n        /* \"#utility.yul\":15412:16715   */\n      pop\n      pop\n      pop\n        /* \"#utility.yul\":15320:16715   */\n      pop\n      pop\n      jump\t// out\n        /* \"#utility.yul\":16721:16901   */\n    tag_165:\n        /* \"#utility.yul\":16769:16846   */\n      0x4e487b7100000000000000000000000000000000000000000000000000000000\n        /* \"#utility.yul\":16766:16767   */\n      0x00\n        /* \"#utility.yul\":16759:16847   */\n      mstore\n        /* \"#utility.yul\":16866:16870   */\n      0x11\n        /* \"#utility.yul\":16863:16864   */\n      0x04\n        /* \"#utility.yul\":16856:16871   */\n      mstore\n        /* \"#utility.yul\":16890:16894   */\n      0x24\n        /* \"#utility.yul\":16887:16888   */\n      0x00\n        /* \"#utility.yul\":16880:16895   */\n      revert\n        /* \"#utility.yul\":16907:17140   */\n    tag_86:\n        /* \"#utility.yul\":16946:16949   */\n      0x00\n        /* \"#utility.yul\":16969:16993   */\n      tag_345\n        /* \"#utility.yul\":16987:16992   */\n      dup3\n        /* \"#utility.yul\":16969:16993   */\n      tag_114\n      jump\t// in\n    tag_345:\n        /* \"#utility.yul\":16960:16993   */\n      swap2\n      pop\n        /* \"#utility.yul\":17015:17081   */\n      0xffffffffffffffffffffffffffffffffffffffffffffffffffffffffffffffff\n        /* \"#utility.yul\":17008:17013   */\n      dup3\n        /* \"#utility.yul\":17005:17082   */\n      sub\n        /* \"#utility.yul\":17002:17105   */\n      tag_346\n      jumpi\n        /* \"#utility.yul\":17085:17103   */\n      tag_347\n      tag_165\n      jump\t// in\n    tag_347:\n        /* \"#utility.yul\":17002:17105   */\n    tag_346:\n        /* \"#utility.yul\":17132:17133   */\n      0x01\n        /* \"#utility.yul\":17125:17130   */\n      dup3\n        /* \"#utility.yul\":17121:17134   */\n      add\n        /* \"#utility.yul\":17114:17134   */\n      swap1\n      pop\n        /* \"#utility.yul\":16907:17140   */\n      swap2\n      swap1\n      pop\n      jump\t// out\n        /* \"#utility.yul\":17146:17312   */\n    tag_166:\n        /* \"#utility.yul\":17286:17304   */\n      0x4e6f74207468652072657461696c657200000000000000000000000000000000\n        /* \"#utility.yul\":17282:17283   */\n      0x00\n        /* \"#utility.yul\":17274:17280   */\n      dup3\n        /* \"#utility.yul\":17270:17284   */\n      add\n        /* \"#utility.yul\":17263:17305   */\n      mstore\n        /* \"#utility.yul\":17146:17312   */\n      pop\n      jump\t// out\n        /* \"#utility.yul\":17318:17684   */\n    tag_167:\n        /* \"#utility.yul\":17460:17463   */\n      0x00\n        /* \"#utility.yul\":17481:17548   */\n      tag_350\n        /* \"#utility.yul\":17545:17547   */\n      0x10\n        /* \"#utility.yul\":17540:17543   */\n      dup4\n        /* \"#utility.yul\":17481:17548   */\n      tag_119\n      jump\t// in\n    tag_350:\n        /* \"#utility.yul\":17474:17548   */\n      swap2\n      pop\n        /* \"#utility.yul\":17557:17650   */\n      tag_351\n        /* \"#utility.yul\":17646:17649   */\n      dup3\n        /* \"#utility.yul\":17557:17650   */\n      tag_166\n      jump\t// in\n    tag_351:\n        /* \"#utility.yul\":17675:17677   */\n      0x20\n        /* \"#utility.yul\":17670:17673   */\n      dup3\n        /* \"#utility.yul\":17666:17678   */\n      add\n        /* \"#utility.yul\":17659:17678   */\n      swap1\n      pop\n        /* \"#utility.yul\":17318:17684   */\n      swap2\n      swap1\n      pop\n      jump\t// out\n        /* \"#utility.yul\":17690:18109   */\n    tag_100:\n        /* \"#utility.yul\":17856:17860   */\n      0x00\n        /* \"#utility.yul\":17894:17896   */\n      0x20\n        /* \"#utility.yul\":17883:17892   */\n      dup3\n        /* \"#utility.yul\":17879:17897   */\n      add\n        /* \"#utility.yul\":17871:17897   */\n      swap1\n      pop\n        /* \"#utility.yul\":17943:17952   */\n      dup2\n        /* \"#utility.yul\":17937:17941   */\n      dup2\n        /* \"#utility.yul\":17933:17953   */\n      sub\n        /* \"#utility.yul\":17929:17930   */\n      0x00\n        /* \"#utility.yul\":17918:17927   */\n      dup4\n        /* \"#utility.yul\":17914:17931   */\n      add\n        /* \"#utility.yul\":17907:17954   */\n      mstore\n        /* \"#utility.yul\":17971:18102   */\n      tag_353\n        /* \"#utility.yul\":18097:18101   */\n      dup2\n        /* \"#utility.yul\":17971:18102   */\n      tag_167\n      jump\t// in\n    tag_353:\n        /* \"#utility.yul\":17963:18102   */\n      swap1\n      pop\n        /* \"#utility.yul\":17690:18109   */\n      swap2\n      swap1\n      pop\n      jump\t// out\n        /* \"#utility.yul\":18115:18293   */\n    tag_168:\n        /* \"#utility.yul\":18255:18285   */\n      0x50726f64756374206e6f7420726561647920666f722072657461696c00000000\n        /* \"#utility.yul\":18251:18252   */\n      0x00\n        /* \"#utility.yul\":18243:18249   */\n      dup3\n        /* \"#utility.yul\":18239:18253   */\n      add\n        /* \"#utility.yul\":18232:18286   */\n      mstore\n        /* \"#utility.yul\":18115:18293   */\n      pop\n      jump\t// out\n        /* \"#utility.yul\":18299:18665   */\n    tag_169:\n        /* \"#utility.yul\":18441:18444   */\n      0x00\n        /* \"#utility.yul\":18462:18529   */\n      tag_356\n        /* \"#utility.yul\":18526:18528   */\n      0x1c\n        /* \"#utility.yul\":18521:18524   */\n      dup4\n        /* \"#utility.yul\":18462:18529   */\n      tag_119\n      jump\t// in\n    tag_356:\n        /* \"#utility.yul\":18455:18529   */\n      swap2\n      pop\n        /* \"#utility.yul\":18538:18631   */\n      tag_357\n        /* \"#utility.yul\":18627:18630   */\n      dup3\n        /* \"#utility.yul\":18538:18631   */\n      tag_168\n      jump\t// in\n    tag_357:\n        /* \"#utility.yul\":18656:18658   */\n      0x20\n        /* \"#utility.yul\":18651:18654   */\n      dup3\n        /* \"#utility.yul\":18647:18659   */\n      add\n        /* \"#utility.yul\":18640:18659   */\n      swap1\n      pop\n        /* \"#utility.yul\":18299:18665   */\n      swap2\n      swap1\n      pop\n      jump\t// out\n        /* \"#utility.yul\":18671:19090   */\n    tag_108:\n        /* \"#utility.yul\":18837:18841   */\n      0x00\n        /* \"#utility.yul\":18875:18877   */\n      0x20\n        /* \"#utility.yul\":18864:18873   */\n      dup3\n        /* \"#utility.yul\":18860:18878   */\n      add\n        /* \"#utility.yul\":18852:18878   */\n      swap1\n      pop\n        /* \"#utility.yul\":18924:18933   */\n      dup2\n        /* \"#utility.yul\":18918:18922   */\n      dup2\n        /* \"#utility.yul\":18914:18934   */\n      sub\n        /* \"#utility.yul\":18910:18911   */\n      0x00\n        /* \"#utility.yul\":18899:18908   */\n      dup4\n        /* \"#utility.yul\":18895:18912   */\n      add\n        /* \"#utility.yul\":18888:18935   */\n      mstore\n        /* \"#utility.yul\":18952:19083   */\n      tag_359\n        /* \"#utility.yul\":19078:19082   */\n      dup2\n        /* \"#utility.yul\":18952:19083   */\n      tag_169\n      jump\t// in\n    tag_359:\n        /* \"#utility.yul\":18944:19083   */\n      swap1\n      pop\n        /* \"#utility.yul\":18671:19090   */\n      swap2\n      swap1\n      pop\n      jump\t// out\n\n    auxdata: 0xa264697066735822122083445b088e6ee275346fdd7f8415ffba43235adedef280d0027ad0c90745f92664736f6c634300081a0033\n}\n",
				"bytecode": {
					"linkReferences": {},
					"object": "6080604052348015600e575f80fd5b503360025f6101000a81548173ffffffffffffffffffffffffffffffffffffffff021916908373ffffffffffffffffffffffffffffffffffffffff1602179055506116308061005c5f395ff3fe608060405234801561000f575f80fd5b5060043610610086575f3560e01c8063b9db15b411610059578063b9db15b414610114578063e0f6ef871461014a578063f851a44014610168578063ff403e231461018657610086565b80630e4000db1461008a5780636b36bed1146100a65780637acc0b20146100c2578063aa74cf59146100f8575b5f80fd5b6100a4600480360381019061009f9190610c4f565b6101a2565b005b6100c060048036038101906100bb9190610c4f565b610308565b005b6100dc60048036038101906100d79190610c4f565b61046d565b6040516100ef9796959493929190610dab565b60405180910390f35b610112600480360381019061010d9190610f75565b6105b9565b005b61012e60048036038101906101299190610c4f565b6107f0565b6040516101419796959493929190610dab565b60405180910390f35b610152610a7a565b60405161015f9190610ff5565b60405180910390f35b610170610a80565b60405161017d919061100e565b60405180910390f35b6101a0600480360381019061019b9190610c4f565b610aa5565b005b805f808281526020019081526020015f206004015f9054906101000a900473ffffffffffffffffffffffffffffffffffffffff1673ffffffffffffffffffffffffffffffffffffffff163373ffffffffffffffffffffffffffffffffffffffff1614610243576040517f08c379a000000000000000000000000000000000000000000000000000000000815260040161023a90611071565b60405180910390fd5b6001600381111561025757610256610cf9565b5b5f808481526020019081526020015f206002015f9054906101000a900460ff16600381111561028957610288610cf9565b5b146102c9576040517f08c379a00000000000000000000000000000000000000000000000000000000081526004016102c0906110ff565b60405180910390fd5b60025f808481526020019081526020015f206002015f6101000a81548160ff021916908360038111156102ff576102fe610cf9565b5b02179055505050565b805f808281526020019081526020015f206003015f9054906101000a900473ffffffffffffffffffffffffffffffffffffffff1673ffffffffffffffffffffffffffffffffffffffff163373ffffffffffffffffffffffffffffffffffffffff16146103a9576040517f08c379a00000000000000000000000000000000000000000000000000000000081526004016103a090611167565b60405180910390fd5b5f60038111156103bc576103bb610cf9565b5b5f808481526020019081526020015f206002015f9054906101000a900460ff1660038111156103ee576103ed610cf9565b5b1461042e576040517f08c379a0000000000000000000000000000000000000000000000000000000008152600401610425906111cf565b60405180910390fd5b60015f808481526020019081526020015f206002015f6101000a81548160ff0219169083600381111561046457610463610cf9565b5b02179055505050565b5f602052805f5260405f205f91509050805f0154908060010180546104919061121a565b80601f01602080910402602001604051908101604052809291908181526020018280546104bd9061121a565b80156105085780601f106104df57610100808354040283529160200191610508565b820191905f5260205f20905b8154815290600101906020018083116104eb57829003601f168201915b505050505090806002015f9054906101000a900460ff16908060020160019054906101000a900473ffffffffffffffffffffffffffffffffffffffff1690806003015f9054906101000a900473ffffffffffffffffffffffffffffffffffffffff1690806004015f9054906101000a900473ffffffffffffffffffffffffffffffffffffffff1690806005015f9054906101000a900473ffffffffffffffffffffffffffffffffffffffff16905087565b6040518060e0016040528060015481526020018581526020015f60038111156105e5576105e4610cf9565b5b81526020013373ffffffffffffffffffffffffffffffffffffffff1681526020018473ffffffffffffffffffffffffffffffffffffffff1681526020018373ffffffffffffffffffffffffffffffffffffffff1681526020018273ffffffffffffffffffffffffffffffffffffffff168152505f8060015481526020019081526020015f205f820151815f0155602082015181600101908161068791906113e7565b506040820151816002015f6101000a81548160ff021916908360038111156106b2576106b1610cf9565b5b021790555060608201518160020160016101000a81548173ffffffffffffffffffffffffffffffffffffffff021916908373ffffffffffffffffffffffffffffffffffffffff1602179055506080820151816003015f6101000a81548173ffffffffffffffffffffffffffffffffffffffff021916908373ffffffffffffffffffffffffffffffffffffffff16021790555060a0820151816004015f6101000a81548173ffffffffffffffffffffffffffffffffffffffff021916908373ffffffffffffffffffffffffffffffffffffffff16021790555060c0820151816005015f6101000a81548173ffffffffffffffffffffffffffffffffffffffff021916908373ffffffffffffffffffffffffffffffffffffffff16021790555090505060015f8154809291906107e5906114e3565b919050555050505050565b5f60605f805f805f805f808a81526020019081526020015f206040518060e00160405290815f820154815260200160018201805461082d9061121a565b80601f01602080910402602001604051908101604052809291908181526020018280546108599061121a565b80156108a45780601f1061087b576101008083540402835291602001916108a4565b820191905f5260205f20905b81548152906001019060200180831161088757829003601f168201915b50505050508152602001600282015f9054906101000a900460ff1660038111156108d1576108d0610cf9565b5b60038111156108e3576108e2610cf9565b5b81526020016002820160019054906101000a900473ffffffffffffffffffffffffffffffffffffffff1673ffffffffffffffffffffffffffffffffffffffff1673ffffffffffffffffffffffffffffffffffffffff168152602001600382015f9054906101000a900473ffffffffffffffffffffffffffffffffffffffff1673ffffffffffffffffffffffffffffffffffffffff1673ffffffffffffffffffffffffffffffffffffffff168152602001600482015f9054906101000a900473ffffffffffffffffffffffffffffffffffffffff1673ffffffffffffffffffffffffffffffffffffffff1673ffffffffffffffffffffffffffffffffffffffff168152602001600582015f9054906101000a900473ffffffffffffffffffffffffffffffffffffffff1673ffffffffffffffffffffffffffffffffffffffff1673ffffffffffffffffffffffffffffffffffffffff16815250509050805f015181602001518260400151836060015184608001518560a001518660c00151975097509750975097509750975050919395979092949650565b60015481565b60025f9054906101000a900473ffffffffffffffffffffffffffffffffffffffff1681565b805f808281526020019081526020015f206005015f9054906101000a900473ffffffffffffffffffffffffffffffffffffffff1673ffffffffffffffffffffffffffffffffffffffff163373ffffffffffffffffffffffffffffffffffffffff1614610b46576040517f08c379a0000000000000000000000000000000000000000000000000000000008152600401610b3d90611574565b60405180910390fd5b60026003811115610b5a57610b59610cf9565b5b5f808481526020019081526020015f206002015f9054906101000a900460ff166003811115610b8c57610b8b610cf9565b5b14610bcc576040517f08c379a0000000000000000000000000000000000000000000000000000000008152600401610bc3906115dc565b60405180910390fd5b60035f808481526020019081526020015f206002015f6101000a81548160ff02191690836003811115610c0257610c01610cf9565b5b02179055505050565b5f604051905090565b5f80fd5b5f80fd5b5f819050919050565b610c2e81610c1c565b8114610c38575f80fd5b50565b5f81359050610c4981610c25565b92915050565b5f60208284031215610c6457610c63610c14565b5b5f610c7184828501610c3b565b91505092915050565b610c8381610c1c565b82525050565b5f81519050919050565b5f82825260208201905092915050565b8281835e5f83830152505050565b5f601f19601f8301169050919050565b5f610ccb82610c89565b610cd58185610c93565b9350610ce5818560208601610ca3565b610cee81610cb1565b840191505092915050565b7f4e487b71000000000000000000000000000000000000000000000000000000005f52602160045260245ffd5b60048110610d3757610d36610cf9565b5b50565b5f819050610d4782610d26565b919050565b5f610d5682610d3a565b9050919050565b610d6681610d4c565b82525050565b5f73ffffffffffffffffffffffffffffffffffffffff82169050919050565b5f610d9582610d6c565b9050919050565b610da581610d8b565b82525050565b5f60e082019050610dbe5f83018a610c7a565b8181036020830152610dd08189610cc1565b9050610ddf6040830188610d5d565b610dec6060830187610d9c565b610df96080830186610d9c565b610e0660a0830185610d9c565b610e1360c0830184610d9c565b98975050505050505050565b5f80fd5b5f80fd5b7f4e487b71000000000000000000000000000000000000000000000000000000005f52604160045260245ffd5b610e5d82610cb1565b810181811067ffffffffffffffff82111715610e7c57610e7b610e27565b5b80604052505050565b5f610e8e610c0b565b9050610e9a8282610e54565b919050565b5f67ffffffffffffffff821115610eb957610eb8610e27565b5b610ec282610cb1565b9050602081019050919050565b828183375f83830152505050565b5f610eef610eea84610e9f565b610e85565b905082815260208101848484011115610f0b57610f0a610e23565b5b610f16848285610ecf565b509392505050565b5f82601f830112610f3257610f31610e1f565b5b8135610f42848260208601610edd565b91505092915050565b610f5481610d8b565b8114610f5e575f80fd5b50565b5f81359050610f6f81610f4b565b92915050565b5f805f8060808587031215610f8d57610f8c610c14565b5b5f85013567ffffffffffffffff811115610faa57610fa9610c18565b5b610fb687828801610f1e565b9450506020610fc787828801610f61565b9350506040610fd887828801610f61565b9250506060610fe987828801610f61565b91505092959194509250565b5f6020820190506110085f830184610c7a565b92915050565b5f6020820190506110215f830184610d9c565b92915050565b7f4e6f7420746865206469737472696275746f72000000000000000000000000005f82015250565b5f61105b601383610c93565b915061106682611027565b602082019050919050565b5f6020820190508181035f8301526110888161104f565b9050919050565b7f50726f64756374206e6f7420726561647920666f7220646973747269627574695f8201527f6f6e000000000000000000000000000000000000000000000000000000000000602082015250565b5f6110e9602283610c93565b91506110f48261108f565b604082019050919050565b5f6020820190508181035f830152611116816110dd565b9050919050565b7f4e6f742074686520737570706c696572000000000000000000000000000000005f82015250565b5f611151601083610c93565b915061115c8261111d565b602082019050919050565b5f6020820190508181035f83015261117e81611145565b9050919050565b7f50726f64756374206e6f7420726561647920666f7220737570706c79000000005f82015250565b5f6111b9601c83610c93565b91506111c482611185565b602082019050919050565b5f6020820190508181035f8301526111e6816111ad565b9050919050565b7f4e487b71000000000000000000000000000000000000000000000000000000005f52602260045260245ffd5b5f600282049050600182168061123157607f821691505b602082108103611244576112436111ed565b5b50919050565b5f819050815f5260205f209050919050565b5f6020601f8301049050919050565b5f82821b905092915050565b5f600883026112a67fffffffffffffffffffffffffffffffffffffffffffffffffffffffffffffffff8261126b565b6112b0868361126b565b95508019841693508086168417925050509392505050565b5f819050919050565b5f6112eb6112e66112e184610c1c565b6112c8565b610c1c565b9050919050565b5f819050919050565b611304836112d1565b611318611310826112f2565b848454611277565b825550505050565b5f90565b61132c611320565b6113378184846112fb565b505050565b5b8181101561135a5761134f5f82611324565b60018101905061133d565b5050565b601f82111561139f576113708161124a565b6113798461125c565b81016020851015611388578190505b61139c6113948561125c565b83018261133c565b50505b505050565b5f82821c905092915050565b5f6113bf5f19846008026113a4565b1980831691505092915050565b5f6113d783836113b0565b9150826002028217905092915050565b6113f082610c89565b67ffffffffffffffff81111561140957611408610e27565b5b611413825461121a565b61141e82828561135e565b5f60209050601f83116001811461144f575f841561143d578287015190505b61144785826113cc565b8655506114ae565b601f19841661145d8661124a565b5f5b828110156114845784890151825560018201915060208501945060208101905061145f565b868310156114a1578489015161149d601f8916826113b0565b8355505b6001600288020188555050505b505050505050565b7f4e487b71000000000000000000000000000000000000000000000000000000005f52601160045260245ffd5b5f6114ed82610c1c565b91507fffffffffffffffffffffffffffffffffffffffffffffffffffffffffffffffff820361151f5761151e6114b6565b5b600182019050919050565b7f4e6f74207468652072657461696c6572000000000000000000000000000000005f82015250565b5f61155e601083610c93565b91506115698261152a565b602082019050919050565b5f6020820190508181035f83015261158b81611552565b9050919050565b7f50726f64756374206e6f7420726561647920666f722072657461696c000000005f82015250565b5f6115c6601c83610c93565b91506115d182611592565b602082019050919050565b5f6020820190508181035f8301526115f3816115ba565b905091905056fea264697066735822122083445b088e6ee275346fdd7f8415ffba43235adedef280d0027ad0c90745f92664736f6c634300081a0033",
					"opcodes": "PUSH1 0x80 PUSH1 0x40 MSTORE CALLVALUE DUP1 ISZERO PUSH1 0xE JUMPI PUSH0 DUP1 REVERT JUMPDEST POP CALLER PUSH1 0x2 PUSH0 PUSH2 0x100 EXP DUP2 SLOAD DUP2 PUSH20 0xFFFFFFFFFFFFFFFFFFFFFFFFFFFFFFFFFFFFFFFF MUL NOT AND SWAP1 DUP4 PUSH20 0xFFFFFFFFFFFFFFFFFFFFFFFFFFFFFFFFFFFFFFFF AND MUL OR SWAP1 SSTORE POP PUSH2 0x1630 DUP1 PUSH2 0x5C PUSH0 CODECOPY PUSH0 RETURN INVALID PUSH1 0x80 PUSH1 0x40 MSTORE CALLVALUE DUP1 ISZERO PUSH2 0xF JUMPI PUSH0 DUP1 REVERT JUMPDEST POP PUSH1 0x4 CALLDATASIZE LT PUSH2 0x86 JUMPI PUSH0 CALLDATALOAD PUSH1 0xE0 SHR DUP1 PUSH4 0xB9DB15B4 GT PUSH2 0x59 JUMPI DUP1 PUSH4 0xB9DB15B4 EQ PUSH2 0x114 JUMPI DUP1 PUSH4 0xE0F6EF87 EQ PUSH2 0x14A JUMPI DUP1 PUSH4 0xF851A440 EQ PUSH2 0x168 JUMPI DUP1 PUSH4 0xFF403E23 EQ PUSH2 0x186 JUMPI PUSH2 0x86 JUMP JUMPDEST DUP1 PUSH4 0xE4000DB EQ PUSH2 0x8A JUMPI DUP1 PUSH4 0x6B36BED1 EQ PUSH2 0xA6 JUMPI DUP1 PUSH4 0x7ACC0B20 EQ PUSH2 0xC2 JUMPI DUP1 PUSH4 0xAA74CF59 EQ PUSH2 0xF8 JUMPI JUMPDEST PUSH0 DUP1 REVERT JUMPDEST PUSH2 0xA4 PUSH1 0x4 DUP1 CALLDATASIZE SUB DUP2 ADD SWAP1 PUSH2 0x9F SWAP2 SWAP1 PUSH2 0xC4F JUMP JUMPDEST PUSH2 0x1A2 JUMP JUMPDEST STOP JUMPDEST PUSH2 0xC0 PUSH1 0x4 DUP1 CALLDATASIZE SUB DUP2 ADD SWAP1 PUSH2 0xBB SWAP2 SWAP1 PUSH2 0xC4F JUMP JUMPDEST PUSH2 0x308 JUMP JUMPDEST STOP JUMPDEST PUSH2 0xDC PUSH1 0x4 DUP1 CALLDATASIZE SUB DUP2 ADD SWAP1 PUSH2 0xD7 SWAP2 SWAP1 PUSH2 0xC4F JUMP JUMPDEST PUSH2 0x46D JUMP JUMPDEST PUSH1 0x40 MLOAD PUSH2 0xEF SWAP8 SWAP7 SWAP6 SWAP5 SWAP4 SWAP3 SWAP2 SWAP1 PUSH2 0xDAB JUMP JUMPDEST PUSH1 0x40 MLOAD DUP1 SWAP2 SUB SWAP1 RETURN JUMPDEST PUSH2 0x112 PUSH1 0x4 DUP1 CALLDATASIZE SUB DUP2 ADD SWAP1 PUSH2 0x10D SWAP2 SWAP1 PUSH2 0xF75 JUMP JUMPDEST PUSH2 0x5B9 JUMP JUMPDEST STOP JUMPDEST PUSH2 0x12E PUSH1 0x4 DUP1 CALLDATASIZE SUB DUP2 ADD SWAP1 PUSH2 0x129 SWAP2 SWAP1 PUSH2 0xC4F JUMP JUMPDEST PUSH2 0x7F0 JUMP JUMPDEST PUSH1 0x40 MLOAD PUSH2 0x141 SWAP8 SWAP7 SWAP6 SWAP5 SWAP4 SWAP3 SWAP2 SWAP1 PUSH2 0xDAB JUMP JUMPDEST PUSH1 0x40 MLOAD DUP1 SWAP2 SUB SWAP1 RETURN JUMPDEST PUSH2 0x152 PUSH2 0xA7A JUMP JUMPDEST PUSH1 0x40 MLOAD PUSH2 0x15F SWAP2 SWAP1 PUSH2 0xFF5 JUMP JUMPDEST PUSH1 0x40 MLOAD DUP1 SWAP2 SUB SWAP1 RETURN JUMPDEST PUSH2 0x170 PUSH2 0xA80 JUMP JUMPDEST PUSH1 0x40 MLOAD PUSH2 0x17D SWAP2 SWAP1 PUSH2 0x100E JUMP JUMPDEST PUSH1 0x40 MLOAD DUP1 SWAP2 SUB SWAP1 RETURN JUMPDEST PUSH2 0x1A0 PUSH1 0x4 DUP1 CALLDATASIZE SUB DUP2 ADD SWAP1 PUSH2 0x19B SWAP2 SWAP1 PUSH2 0xC4F JUMP JUMPDEST PUSH2 0xAA5 JUMP JUMPDEST STOP JUMPDEST DUP1 PUSH0 DUP1 DUP3 DUP2 MSTORE PUSH1 0x20 ADD SWAP1 DUP2 MSTORE PUSH1 0x20 ADD PUSH0 KECCAK256 PUSH1 0x4 ADD PUSH0 SWAP1 SLOAD SWAP1 PUSH2 0x100 EXP SWAP1 DIV PUSH20 0xFFFFFFFFFFFFFFFFFFFFFFFFFFFFFFFFFFFFFFFF AND PUSH20 0xFFFFFFFFFFFFFFFFFFFFFFFFFFFFFFFFFFFFFFFF AND CALLER PUSH20 0xFFFFFFFFFFFFFFFFFFFFFFFFFFFFFFFFFFFFFFFF AND EQ PUSH2 0x243 JUMPI PUSH1 0x40 MLOAD PUSH32 0x8C379A000000000000000000000000000000000000000000000000000000000 DUP2 MSTORE PUSH1 0x4 ADD PUSH2 0x23A SWAP1 PUSH2 0x1071 JUMP JUMPDEST PUSH1 0x40 MLOAD DUP1 SWAP2 SUB SWAP1 REVERT JUMPDEST PUSH1 0x1 PUSH1 0x3 DUP2 GT ISZERO PUSH2 0x257 JUMPI PUSH2 0x256 PUSH2 0xCF9 JUMP JUMPDEST JUMPDEST PUSH0 DUP1 DUP5 DUP2 MSTORE PUSH1 0x20 ADD SWAP1 DUP2 MSTORE PUSH1 0x20 ADD PUSH0 KECCAK256 PUSH1 0x2 ADD PUSH0 SWAP1 SLOAD SWAP1 PUSH2 0x100 EXP SWAP1 DIV PUSH1 0xFF AND PUSH1 0x3 DUP2 GT ISZERO PUSH2 0x289 JUMPI PUSH2 0x288 PUSH2 0xCF9 JUMP JUMPDEST JUMPDEST EQ PUSH2 0x2C9 JUMPI PUSH1 0x40 MLOAD PUSH32 0x8C379A000000000000000000000000000000000000000000000000000000000 DUP2 MSTORE PUSH1 0x4 ADD PUSH2 0x2C0 SWAP1 PUSH2 0x10FF JUMP JUMPDEST PUSH1 0x40 MLOAD DUP1 SWAP2 SUB SWAP1 REVERT JUMPDEST PUSH1 0x2 PUSH0 DUP1 DUP5 DUP2 MSTORE PUSH1 0x20 ADD SWAP1 DUP2 MSTORE PUSH1 0x20 ADD PUSH0 KECCAK256 PUSH1 0x2 ADD PUSH0 PUSH2 0x100 EXP DUP2 SLOAD DUP2 PUSH1 0xFF MUL NOT AND SWAP1 DUP4 PUSH1 0x3 DUP2 GT ISZERO PUSH2 0x2FF JUMPI PUSH2 0x2FE PUSH2 0xCF9 JUMP JUMPDEST JUMPDEST MUL OR SWAP1 SSTORE POP POP POP JUMP JUMPDEST DUP1 PUSH0 DUP1 DUP3 DUP2 MSTORE PUSH1 0x20 ADD SWAP1 DUP2 MSTORE PUSH1 0x20 ADD PUSH0 KECCAK256 PUSH1 0x3 ADD PUSH0 SWAP1 SLOAD SWAP1 PUSH2 0x100 EXP SWAP1 DIV PUSH20 0xFFFFFFFFFFFFFFFFFFFFFFFFFFFFFFFFFFFFFFFF AND PUSH20 0xFFFFFFFFFFFFFFFFFFFFFFFFFFFFFFFFFFFFFFFF AND CALLER PUSH20 0xFFFFFFFFFFFFFFFFFFFFFFFFFFFFFFFFFFFFFFFF AND EQ PUSH2 0x3A9 JUMPI PUSH1 0x40 MLOAD PUSH32 0x8C379A000000000000000000000000000000000000000000000000000000000 DUP2 MSTORE PUSH1 0x4 ADD PUSH2 0x3A0 SWAP1 PUSH2 0x1167 JUMP JUMPDEST PUSH1 0x40 MLOAD DUP1 SWAP2 SUB SWAP1 REVERT JUMPDEST PUSH0 PUSH1 0x3 DUP2 GT ISZERO PUSH2 0x3BC JUMPI PUSH2 0x3BB PUSH2 0xCF9 JUMP JUMPDEST JUMPDEST PUSH0 DUP1 DUP5 DUP2 MSTORE PUSH1 0x20 ADD SWAP1 DUP2 MSTORE PUSH1 0x20 ADD PUSH0 KECCAK256 PUSH1 0x2 ADD PUSH0 SWAP1 SLOAD SWAP1 PUSH2 0x100 EXP SWAP1 DIV PUSH1 0xFF AND PUSH1 0x3 DUP2 GT ISZERO PUSH2 0x3EE JUMPI PUSH2 0x3ED PUSH2 0xCF9 JUMP JUMPDEST JUMPDEST EQ PUSH2 0x42E JUMPI PUSH1 0x40 MLOAD PUSH32 0x8C379A000000000000000000000000000000000000000000000000000000000 DUP2 MSTORE PUSH1 0x4 ADD PUSH2 0x425 SWAP1 PUSH2 0x11CF JUMP JUMPDEST PUSH1 0x40 MLOAD DUP1 SWAP2 SUB SWAP1 REVERT JUMPDEST PUSH1 0x1 PUSH0 DUP1 DUP5 DUP2 MSTORE PUSH1 0x20 ADD SWAP1 DUP2 MSTORE PUSH1 0x20 ADD PUSH0 KECCAK256 PUSH1 0x2 ADD PUSH0 PUSH2 0x100 EXP DUP2 SLOAD DUP2 PUSH1 0xFF MUL NOT AND SWAP1 DUP4 PUSH1 0x3 DUP2 GT ISZERO PUSH2 0x464 JUMPI PUSH2 0x463 PUSH2 0xCF9 JUMP JUMPDEST JUMPDEST MUL OR SWAP1 SSTORE POP POP POP JUMP JUMPDEST PUSH0 PUSH1 0x20 MSTORE DUP1 PUSH0 MSTORE PUSH1 0x40 PUSH0 KECCAK256 PUSH0 SWAP2 POP SWAP1 POP DUP1 PUSH0 ADD SLOAD SWAP1 DUP1 PUSH1 0x1 ADD DUP1 SLOAD PUSH2 0x491 SWAP1 PUSH2 0x121A JUMP JUMPDEST DUP1 PUSH1 0x1F ADD PUSH1 0x20 DUP1 SWAP2 DIV MUL PUSH1 0x20 ADD PUSH1 0x40 MLOAD SWAP1 DUP2 ADD PUSH1 0x40 MSTORE DUP1 SWAP3 SWAP2 SWAP1 DUP2 DUP2 MSTORE PUSH1 0x20 ADD DUP3 DUP1 SLOAD PUSH2 0x4BD SWAP1 PUSH2 0x121A JUMP JUMPDEST DUP1 ISZERO PUSH2 0x508 JUMPI DUP1 PUSH1 0x1F LT PUSH2 0x4DF JUMPI PUSH2 0x100 DUP1 DUP4 SLOAD DIV MUL DUP4 MSTORE SWAP2 PUSH1 0x20 ADD SWAP2 PUSH2 0x508 JUMP JUMPDEST DUP3 ADD SWAP2 SWAP1 PUSH0 MSTORE PUSH1 0x20 PUSH0 KECCAK256 SWAP1 JUMPDEST DUP2 SLOAD DUP2 MSTORE SWAP1 PUSH1 0x1 ADD SWAP1 PUSH1 0x20 ADD DUP1 DUP4 GT PUSH2 0x4EB JUMPI DUP3 SWAP1 SUB PUSH1 0x1F AND DUP3 ADD SWAP2 JUMPDEST POP POP POP POP POP SWAP1 DUP1 PUSH1 0x2 ADD PUSH0 SWAP1 SLOAD SWAP1 PUSH2 0x100 EXP SWAP1 DIV PUSH1 0xFF AND SWAP1 DUP1 PUSH1 0x2 ADD PUSH1 0x1 SWAP1 SLOAD SWAP1 PUSH2 0x100 EXP SWAP1 DIV PUSH20 0xFFFFFFFFFFFFFFFFFFFFFFFFFFFFFFFFFFFFFFFF AND SWAP1 DUP1 PUSH1 0x3 ADD PUSH0 SWAP1 SLOAD SWAP1 PUSH2 0x100 EXP SWAP1 DIV PUSH20 0xFFFFFFFFFFFFFFFFFFFFFFFFFFFFFFFFFFFFFFFF AND SWAP1 DUP1 PUSH1 0x4 ADD PUSH0 SWAP1 SLOAD SWAP1 PUSH2 0x100 EXP SWAP1 DIV PUSH20 0xFFFFFFFFFFFFFFFFFFFFFFFFFFFFFFFFFFFFFFFF AND SWAP1 DUP1 PUSH1 0x5 ADD PUSH0 SWAP1 SLOAD SWAP1 PUSH2 0x100 EXP SWAP1 DIV PUSH20 0xFFFFFFFFFFFFFFFFFFFFFFFFFFFFFFFFFFFFFFFF AND SWAP1 POP DUP8 JUMP JUMPDEST PUSH1 0x40 MLOAD DUP1 PUSH1 0xE0 ADD PUSH1 0x40 MSTORE DUP1 PUSH1 0x1 SLOAD DUP2 MSTORE PUSH1 0x20 ADD DUP6 DUP2 MSTORE PUSH1 0x20 ADD PUSH0 PUSH1 0x3 DUP2 GT ISZERO PUSH2 0x5E5 JUMPI PUSH2 0x5E4 PUSH2 0xCF9 JUMP JUMPDEST JUMPDEST DUP2 MSTORE PUSH1 0x20 ADD CALLER PUSH20 0xFFFFFFFFFFFFFFFFFFFFFFFFFFFFFFFFFFFFFFFF AND DUP2 MSTORE PUSH1 0x20 ADD DUP5 PUSH20 0xFFFFFFFFFFFFFFFFFFFFFFFFFFFFFFFFFFFFFFFF AND DUP2 MSTORE PUSH1 0x20 ADD DUP4 PUSH20 0xFFFFFFFFFFFFFFFFFFFFFFFFFFFFFFFFFFFFFFFF AND DUP2 MSTORE PUSH1 0x20 ADD DUP3 PUSH20 0xFFFFFFFFFFFFFFFFFFFFFFFFFFFFFFFFFFFFFFFF AND DUP2 MSTORE POP PUSH0 DUP1 PUSH1 0x1 SLOAD DUP2 MSTORE PUSH1 0x20 ADD SWAP1 DUP2 MSTORE PUSH1 0x20 ADD PUSH0 KECCAK256 PUSH0 DUP3 ADD MLOAD DUP2 PUSH0 ADD SSTORE PUSH1 0x20 DUP3 ADD MLOAD DUP2 PUSH1 0x1 ADD SWAP1 DUP2 PUSH2 0x687 SWAP2 SWAP1 PUSH2 0x13E7 JUMP JUMPDEST POP PUSH1 0x40 DUP3 ADD MLOAD DUP2 PUSH1 0x2 ADD PUSH0 PUSH2 0x100 EXP DUP2 SLOAD DUP2 PUSH1 0xFF MUL NOT AND SWAP1 DUP4 PUSH1 0x3 DUP2 GT ISZERO PUSH2 0x6B2 JUMPI PUSH2 0x6B1 PUSH2 0xCF9 JUMP JUMPDEST JUMPDEST MUL OR SWAP1 SSTORE POP PUSH1 0x60 DUP3 ADD MLOAD DUP2 PUSH1 0x2 ADD PUSH1 0x1 PUSH2 0x100 EXP DUP2 SLOAD DUP2 PUSH20 0xFFFFFFFFFFFFFFFFFFFFFFFFFFFFFFFFFFFFFFFF MUL NOT AND SWAP1 DUP4 PUSH20 0xFFFFFFFFFFFFFFFFFFFFFFFFFFFFFFFFFFFFFFFF AND MUL OR SWAP1 SSTORE POP PUSH1 0x80 DUP3 ADD MLOAD DUP2 PUSH1 0x3 ADD PUSH0 PUSH2 0x100 EXP DUP2 SLOAD DUP2 PUSH20 0xFFFFFFFFFFFFFFFFFFFFFFFFFFFFFFFFFFFFFFFF MUL NOT AND SWAP1 DUP4 PUSH20 0xFFFFFFFFFFFFFFFFFFFFFFFFFFFFFFFFFFFFFFFF AND MUL OR SWAP1 SSTORE POP PUSH1 0xA0 DUP3 ADD MLOAD DUP2 PUSH1 0x4 ADD PUSH0 PUSH2 0x100 EXP DUP2 SLOAD DUP2 PUSH20 0xFFFFFFFFFFFFFFFFFFFFFFFFFFFFFFFFFFFFFFFF MUL NOT AND SWAP1 DUP4 PUSH20 0xFFFFFFFFFFFFFFFFFFFFFFFFFFFFFFFFFFFFFFFF AND MUL OR SWAP1 SSTORE POP PUSH1 0xC0 DUP3 ADD MLOAD DUP2 PUSH1 0x5 ADD PUSH0 PUSH2 0x100 EXP DUP2 SLOAD DUP2 PUSH20 0xFFFFFFFFFFFFFFFFFFFFFFFFFFFFFFFFFFFFFFFF MUL NOT AND SWAP1 DUP4 PUSH20 0xFFFFFFFFFFFFFFFFFFFFFFFFFFFFFFFFFFFFFFFF AND MUL OR SWAP1 SSTORE POP SWAP1 POP POP PUSH1 0x1 PUSH0 DUP2 SLOAD DUP1 SWAP3 SWAP2 SWAP1 PUSH2 0x7E5 SWAP1 PUSH2 0x14E3 JUMP JUMPDEST SWAP2 SWAP1 POP SSTORE POP POP POP POP POP JUMP JUMPDEST PUSH0 PUSH1 0x60 PUSH0 DUP1 PUSH0 DUP1 PUSH0 DUP1 PUSH0 DUP1 DUP11 DUP2 MSTORE PUSH1 0x20 ADD SWAP1 DUP2 MSTORE PUSH1 0x20 ADD PUSH0 KECCAK256 PUSH1 0x40 MLOAD DUP1 PUSH1 0xE0 ADD PUSH1 0x40 MSTORE SWAP1 DUP2 PUSH0 DUP3 ADD SLOAD DUP2 MSTORE PUSH1 0x20 ADD PUSH1 0x1 DUP3 ADD DUP1 SLOAD PUSH2 0x82D SWAP1 PUSH2 0x121A JUMP JUMPDEST DUP1 PUSH1 0x1F ADD PUSH1 0x20 DUP1 SWAP2 DIV MUL PUSH1 0x20 ADD PUSH1 0x40 MLOAD SWAP1 DUP2 ADD PUSH1 0x40 MSTORE DUP1 SWAP3 SWAP2 SWAP1 DUP2 DUP2 MSTORE PUSH1 0x20 ADD DUP3 DUP1 SLOAD PUSH2 0x859 SWAP1 PUSH2 0x121A JUMP JUMPDEST DUP1 ISZERO PUSH2 0x8A4 JUMPI DUP1 PUSH1 0x1F LT PUSH2 0x87B JUMPI PUSH2 0x100 DUP1 DUP4 SLOAD DIV MUL DUP4 MSTORE SWAP2 PUSH1 0x20 ADD SWAP2 PUSH2 0x8A4 JUMP JUMPDEST DUP3 ADD SWAP2 SWAP1 PUSH0 MSTORE PUSH1 0x20 PUSH0 KECCAK256 SWAP1 JUMPDEST DUP2 SLOAD DUP2 MSTORE SWAP1 PUSH1 0x1 ADD SWAP1 PUSH1 0x20 ADD DUP1 DUP4 GT PUSH2 0x887 JUMPI DUP3 SWAP1 SUB PUSH1 0x1F AND DUP3 ADD SWAP2 JUMPDEST POP POP POP POP POP DUP2 MSTORE PUSH1 0x20 ADD PUSH1 0x2 DUP3 ADD PUSH0 SWAP1 SLOAD SWAP1 PUSH2 0x100 EXP SWAP1 DIV PUSH1 0xFF AND PUSH1 0x3 DUP2 GT ISZERO PUSH2 0x8D1 JUMPI PUSH2 0x8D0 PUSH2 0xCF9 JUMP JUMPDEST JUMPDEST PUSH1 0x3 DUP2 GT ISZERO PUSH2 0x8E3 JUMPI PUSH2 0x8E2 PUSH2 0xCF9 JUMP JUMPDEST JUMPDEST DUP2 MSTORE PUSH1 0x20 ADD PUSH1 0x2 DUP3 ADD PUSH1 0x1 SWAP1 SLOAD SWAP1 PUSH2 0x100 EXP SWAP1 DIV PUSH20 0xFFFFFFFFFFFFFFFFFFFFFFFFFFFFFFFFFFFFFFFF AND PUSH20 0xFFFFFFFFFFFFFFFFFFFFFFFFFFFFFFFFFFFFFFFF AND PUSH20 0xFFFFFFFFFFFFFFFFFFFFFFFFFFFFFFFFFFFFFFFF AND DUP2 MSTORE PUSH1 0x20 ADD PUSH1 0x3 DUP3 ADD PUSH0 SWAP1 SLOAD SWAP1 PUSH2 0x100 EXP SWAP1 DIV PUSH20 0xFFFFFFFFFFFFFFFFFFFFFFFFFFFFFFFFFFFFFFFF AND PUSH20 0xFFFFFFFFFFFFFFFFFFFFFFFFFFFFFFFFFFFFFFFF AND PUSH20 0xFFFFFFFFFFFFFFFFFFFFFFFFFFFFFFFFFFFFFFFF AND DUP2 MSTORE PUSH1 0x20 ADD PUSH1 0x4 DUP3 ADD PUSH0 SWAP1 SLOAD SWAP1 PUSH2 0x100 EXP SWAP1 DIV PUSH20 0xFFFFFFFFFFFFFFFFFFFFFFFFFFFFFFFFFFFFFFFF AND PUSH20 0xFFFFFFFFFFFFFFFFFFFFFFFFFFFFFFFFFFFFFFFF AND PUSH20 0xFFFFFFFFFFFFFFFFFFFFFFFFFFFFFFFFFFFFFFFF AND DUP2 MSTORE PUSH1 0x20 ADD PUSH1 0x5 DUP3 ADD PUSH0 SWAP1 SLOAD SWAP1 PUSH2 0x100 EXP SWAP1 DIV PUSH20 0xFFFFFFFFFFFFFFFFFFFFFFFFFFFFFFFFFFFFFFFF AND PUSH20 0xFFFFFFFFFFFFFFFFFFFFFFFFFFFFFFFFFFFFFFFF AND PUSH20 0xFFFFFFFFFFFFFFFFFFFFFFFFFFFFFFFFFFFFFFFF AND DUP2 MSTORE POP POP SWAP1 POP DUP1 PUSH0 ADD MLOAD DUP2 PUSH1 0x20 ADD MLOAD DUP3 PUSH1 0x40 ADD MLOAD DUP4 PUSH1 0x60 ADD MLOAD DUP5 PUSH1 0x80 ADD MLOAD DUP6 PUSH1 0xA0 ADD MLOAD DUP7 PUSH1 0xC0 ADD MLOAD SWAP8 POP SWAP8 POP SWAP8 POP SWAP8 POP SWAP8 POP SWAP8 POP SWAP8 POP POP SWAP2 SWAP4 SWAP6 SWAP8 SWAP1 SWAP3 SWAP5 SWAP7 POP JUMP JUMPDEST PUSH1 0x1 SLOAD DUP2 JUMP JUMPDEST PUSH1 0x2 PUSH0 SWAP1 SLOAD SWAP1 PUSH2 0x100 EXP SWAP1 DIV PUSH20 0xFFFFFFFFFFFFFFFFFFFFFFFFFFFFFFFFFFFFFFFF AND DUP2 JUMP JUMPDEST DUP1 PUSH0 DUP1 DUP3 DUP2 MSTORE PUSH1 0x20 ADD SWAP1 DUP2 MSTORE PUSH1 0x20 ADD PUSH0 KECCAK256 PUSH1 0x5 ADD PUSH0 SWAP1 SLOAD SWAP1 PUSH2 0x100 EXP SWAP1 DIV PUSH20 0xFFFFFFFFFFFFFFFFFFFFFFFFFFFFFFFFFFFFFFFF AND PUSH20 0xFFFFFFFFFFFFFFFFFFFFFFFFFFFFFFFFFFFFFFFF AND CALLER PUSH20 0xFFFFFFFFFFFFFFFFFFFFFFFFFFFFFFFFFFFFFFFF AND EQ PUSH2 0xB46 JUMPI PUSH1 0x40 MLOAD PUSH32 0x8C379A000000000000000000000000000000000000000000000000000000000 DUP2 MSTORE PUSH1 0x4 ADD PUSH2 0xB3D SWAP1 PUSH2 0x1574 JUMP JUMPDEST PUSH1 0x40 MLOAD DUP1 SWAP2 SUB SWAP1 REVERT JUMPDEST PUSH1 0x2 PUSH1 0x3 DUP2 GT ISZERO PUSH2 0xB5A JUMPI PUSH2 0xB59 PUSH2 0xCF9 JUMP JUMPDEST JUMPDEST PUSH0 DUP1 DUP5 DUP2 MSTORE PUSH1 0x20 ADD SWAP1 DUP2 MSTORE PUSH1 0x20 ADD PUSH0 KECCAK256 PUSH1 0x2 ADD PUSH0 SWAP1 SLOAD SWAP1 PUSH2 0x100 EXP SWAP1 DIV PUSH1 0xFF AND PUSH1 0x3 DUP2 GT ISZERO PUSH2 0xB8C JUMPI PUSH2 0xB8B PUSH2 0xCF9 JUMP JUMPDEST JUMPDEST EQ PUSH2 0xBCC JUMPI PUSH1 0x40 MLOAD PUSH32 0x8C379A000000000000000000000000000000000000000000000000000000000 DUP2 MSTORE PUSH1 0x4 ADD PUSH2 0xBC3 SWAP1 PUSH2 0x15DC JUMP JUMPDEST PUSH1 0x40 MLOAD DUP1 SWAP2 SUB SWAP1 REVERT JUMPDEST PUSH1 0x3 PUSH0 DUP1 DUP5 DUP2 MSTORE PUSH1 0x20 ADD SWAP1 DUP2 MSTORE PUSH1 0x20 ADD PUSH0 KECCAK256 PUSH1 0x2 ADD PUSH0 PUSH2 0x100 EXP DUP2 SLOAD DUP2 PUSH1 0xFF MUL NOT AND SWAP1 DUP4 PUSH1 0x3 DUP2 GT ISZERO PUSH2 0xC02 JUMPI PUSH2 0xC01 PUSH2 0xCF9 JUMP JUMPDEST JUMPDEST MUL OR SWAP1 SSTORE POP POP POP JUMP JUMPDEST PUSH0 PUSH1 0x40 MLOAD SWAP1 POP SWAP1 JUMP JUMPDEST PUSH0 DUP1 REVERT JUMPDEST PUSH0 DUP1 REVERT JUMPDEST PUSH0 DUP2 SWAP1 POP SWAP2 SWAP1 POP JUMP JUMPDEST PUSH2 0xC2E DUP2 PUSH2 0xC1C JUMP JUMPDEST DUP2 EQ PUSH2 0xC38 JUMPI PUSH0 DUP1 REVERT JUMPDEST POP JUMP JUMPDEST PUSH0 DUP2 CALLDATALOAD SWAP1 POP PUSH2 0xC49 DUP2 PUSH2 0xC25 JUMP JUMPDEST SWAP3 SWAP2 POP POP JUMP JUMPDEST PUSH0 PUSH1 0x20 DUP3 DUP5 SUB SLT ISZERO PUSH2 0xC64 JUMPI PUSH2 0xC63 PUSH2 0xC14 JUMP JUMPDEST JUMPDEST PUSH0 PUSH2 0xC71 DUP5 DUP3 DUP6 ADD PUSH2 0xC3B JUMP JUMPDEST SWAP2 POP POP SWAP3 SWAP2 POP POP JUMP JUMPDEST PUSH2 0xC83 DUP2 PUSH2 0xC1C JUMP JUMPDEST DUP3 MSTORE POP POP JUMP JUMPDEST PUSH0 DUP2 MLOAD SWAP1 POP SWAP2 SWAP1 POP JUMP JUMPDEST PUSH0 DUP3 DUP3 MSTORE PUSH1 0x20 DUP3 ADD SWAP1 POP SWAP3 SWAP2 POP POP JUMP JUMPDEST DUP3 DUP2 DUP4 MCOPY PUSH0 DUP4 DUP4 ADD MSTORE POP POP POP JUMP JUMPDEST PUSH0 PUSH1 0x1F NOT PUSH1 0x1F DUP4 ADD AND SWAP1 POP SWAP2 SWAP1 POP JUMP JUMPDEST PUSH0 PUSH2 0xCCB DUP3 PUSH2 0xC89 JUMP JUMPDEST PUSH2 0xCD5 DUP2 DUP6 PUSH2 0xC93 JUMP JUMPDEST SWAP4 POP PUSH2 0xCE5 DUP2 DUP6 PUSH1 0x20 DUP7 ADD PUSH2 0xCA3 JUMP JUMPDEST PUSH2 0xCEE DUP2 PUSH2 0xCB1 JUMP JUMPDEST DUP5 ADD SWAP2 POP POP SWAP3 SWAP2 POP POP JUMP JUMPDEST PUSH32 0x4E487B7100000000000000000000000000000000000000000000000000000000 PUSH0 MSTORE PUSH1 0x21 PUSH1 0x4 MSTORE PUSH1 0x24 PUSH0 REVERT JUMPDEST PUSH1 0x4 DUP2 LT PUSH2 0xD37 JUMPI PUSH2 0xD36 PUSH2 0xCF9 JUMP JUMPDEST JUMPDEST POP JUMP JUMPDEST PUSH0 DUP2 SWAP1 POP PUSH2 0xD47 DUP3 PUSH2 0xD26 JUMP JUMPDEST SWAP2 SWAP1 POP JUMP JUMPDEST PUSH0 PUSH2 0xD56 DUP3 PUSH2 0xD3A JUMP JUMPDEST SWAP1 POP SWAP2 SWAP1 POP JUMP JUMPDEST PUSH2 0xD66 DUP2 PUSH2 0xD4C JUMP JUMPDEST DUP3 MSTORE POP POP JUMP JUMPDEST PUSH0 PUSH20 0xFFFFFFFFFFFFFFFFFFFFFFFFFFFFFFFFFFFFFFFF DUP3 AND SWAP1 POP SWAP2 SWAP1 POP JUMP JUMPDEST PUSH0 PUSH2 0xD95 DUP3 PUSH2 0xD6C JUMP JUMPDEST SWAP1 POP SWAP2 SWAP1 POP JUMP JUMPDEST PUSH2 0xDA5 DUP2 PUSH2 0xD8B JUMP JUMPDEST DUP3 MSTORE POP POP JUMP JUMPDEST PUSH0 PUSH1 0xE0 DUP3 ADD SWAP1 POP PUSH2 0xDBE PUSH0 DUP4 ADD DUP11 PUSH2 0xC7A JUMP JUMPDEST DUP2 DUP2 SUB PUSH1 0x20 DUP4 ADD MSTORE PUSH2 0xDD0 DUP2 DUP10 PUSH2 0xCC1 JUMP JUMPDEST SWAP1 POP PUSH2 0xDDF PUSH1 0x40 DUP4 ADD DUP9 PUSH2 0xD5D JUMP JUMPDEST PUSH2 0xDEC PUSH1 0x60 DUP4 ADD DUP8 PUSH2 0xD9C JUMP JUMPDEST PUSH2 0xDF9 PUSH1 0x80 DUP4 ADD DUP7 PUSH2 0xD9C JUMP JUMPDEST PUSH2 0xE06 PUSH1 0xA0 DUP4 ADD DUP6 PUSH2 0xD9C JUMP JUMPDEST PUSH2 0xE13 PUSH1 0xC0 DUP4 ADD DUP5 PUSH2 0xD9C JUMP JUMPDEST SWAP9 SWAP8 POP POP POP POP POP POP POP POP JUMP JUMPDEST PUSH0 DUP1 REVERT JUMPDEST PUSH0 DUP1 REVERT JUMPDEST PUSH32 0x4E487B7100000000000000000000000000000000000000000000000000000000 PUSH0 MSTORE PUSH1 0x41 PUSH1 0x4 MSTORE PUSH1 0x24 PUSH0 REVERT JUMPDEST PUSH2 0xE5D DUP3 PUSH2 0xCB1 JUMP JUMPDEST DUP2 ADD DUP2 DUP2 LT PUSH8 0xFFFFFFFFFFFFFFFF DUP3 GT OR ISZERO PUSH2 0xE7C JUMPI PUSH2 0xE7B PUSH2 0xE27 JUMP JUMPDEST JUMPDEST DUP1 PUSH1 0x40 MSTORE POP POP POP JUMP JUMPDEST PUSH0 PUSH2 0xE8E PUSH2 0xC0B JUMP JUMPDEST SWAP1 POP PUSH2 0xE9A DUP3 DUP3 PUSH2 0xE54 JUMP JUMPDEST SWAP2 SWAP1 POP JUMP JUMPDEST PUSH0 PUSH8 0xFFFFFFFFFFFFFFFF DUP3 GT ISZERO PUSH2 0xEB9 JUMPI PUSH2 0xEB8 PUSH2 0xE27 JUMP JUMPDEST JUMPDEST PUSH2 0xEC2 DUP3 PUSH2 0xCB1 JUMP JUMPDEST SWAP1 POP PUSH1 0x20 DUP2 ADD SWAP1 POP SWAP2 SWAP1 POP JUMP JUMPDEST DUP3 DUP2 DUP4 CALLDATACOPY PUSH0 DUP4 DUP4 ADD MSTORE POP POP POP JUMP JUMPDEST PUSH0 PUSH2 0xEEF PUSH2 0xEEA DUP5 PUSH2 0xE9F JUMP JUMPDEST PUSH2 0xE85 JUMP JUMPDEST SWAP1 POP DUP3 DUP2 MSTORE PUSH1 0x20 DUP2 ADD DUP5 DUP5 DUP5 ADD GT ISZERO PUSH2 0xF0B JUMPI PUSH2 0xF0A PUSH2 0xE23 JUMP JUMPDEST JUMPDEST PUSH2 0xF16 DUP5 DUP3 DUP6 PUSH2 0xECF JUMP JUMPDEST POP SWAP4 SWAP3 POP POP POP JUMP JUMPDEST PUSH0 DUP3 PUSH1 0x1F DUP4 ADD SLT PUSH2 0xF32 JUMPI PUSH2 0xF31 PUSH2 0xE1F JUMP JUMPDEST JUMPDEST DUP2 CALLDATALOAD PUSH2 0xF42 DUP5 DUP3 PUSH1 0x20 DUP7 ADD PUSH2 0xEDD JUMP JUMPDEST SWAP2 POP POP SWAP3 SWAP2 POP POP JUMP JUMPDEST PUSH2 0xF54 DUP2 PUSH2 0xD8B JUMP JUMPDEST DUP2 EQ PUSH2 0xF5E JUMPI PUSH0 DUP1 REVERT JUMPDEST POP JUMP JUMPDEST PUSH0 DUP2 CALLDATALOAD SWAP1 POP PUSH2 0xF6F DUP2 PUSH2 0xF4B JUMP JUMPDEST SWAP3 SWAP2 POP POP JUMP JUMPDEST PUSH0 DUP1 PUSH0 DUP1 PUSH1 0x80 DUP6 DUP8 SUB SLT ISZERO PUSH2 0xF8D JUMPI PUSH2 0xF8C PUSH2 0xC14 JUMP JUMPDEST JUMPDEST PUSH0 DUP6 ADD CALLDATALOAD PUSH8 0xFFFFFFFFFFFFFFFF DUP2 GT ISZERO PUSH2 0xFAA JUMPI PUSH2 0xFA9 PUSH2 0xC18 JUMP JUMPDEST JUMPDEST PUSH2 0xFB6 DUP8 DUP3 DUP9 ADD PUSH2 0xF1E JUMP JUMPDEST SWAP5 POP POP PUSH1 0x20 PUSH2 0xFC7 DUP8 DUP3 DUP9 ADD PUSH2 0xF61 JUMP JUMPDEST SWAP4 POP POP PUSH1 0x40 PUSH2 0xFD8 DUP8 DUP3 DUP9 ADD PUSH2 0xF61 JUMP JUMPDEST SWAP3 POP POP PUSH1 0x60 PUSH2 0xFE9 DUP8 DUP3 DUP9 ADD PUSH2 0xF61 JUMP JUMPDEST SWAP2 POP POP SWAP3 SWAP6 SWAP2 SWAP5 POP SWAP3 POP JUMP JUMPDEST PUSH0 PUSH1 0x20 DUP3 ADD SWAP1 POP PUSH2 0x1008 PUSH0 DUP4 ADD DUP5 PUSH2 0xC7A JUMP JUMPDEST SWAP3 SWAP2 POP POP JUMP JUMPDEST PUSH0 PUSH1 0x20 DUP3 ADD SWAP1 POP PUSH2 0x1021 PUSH0 DUP4 ADD DUP5 PUSH2 0xD9C JUMP JUMPDEST SWAP3 SWAP2 POP POP JUMP JUMPDEST PUSH32 0x4E6F7420746865206469737472696275746F7200000000000000000000000000 PUSH0 DUP3 ADD MSTORE POP JUMP JUMPDEST PUSH0 PUSH2 0x105B PUSH1 0x13 DUP4 PUSH2 0xC93 JUMP JUMPDEST SWAP2 POP PUSH2 0x1066 DUP3 PUSH2 0x1027 JUMP JUMPDEST PUSH1 0x20 DUP3 ADD SWAP1 POP SWAP2 SWAP1 POP JUMP JUMPDEST PUSH0 PUSH1 0x20 DUP3 ADD SWAP1 POP DUP2 DUP2 SUB PUSH0 DUP4 ADD MSTORE PUSH2 0x1088 DUP2 PUSH2 0x104F JUMP JUMPDEST SWAP1 POP SWAP2 SWAP1 POP JUMP JUMPDEST PUSH32 0x50726F64756374206E6F7420726561647920666F722064697374726962757469 PUSH0 DUP3 ADD MSTORE PUSH32 0x6F6E000000000000000000000000000000000000000000000000000000000000 PUSH1 0x20 DUP3 ADD MSTORE POP JUMP JUMPDEST PUSH0 PUSH2 0x10E9 PUSH1 0x22 DUP4 PUSH2 0xC93 JUMP JUMPDEST SWAP2 POP PUSH2 0x10F4 DUP3 PUSH2 0x108F JUMP JUMPDEST PUSH1 0x40 DUP3 ADD SWAP1 POP SWAP2 SWAP1 POP JUMP JUMPDEST PUSH0 PUSH1 0x20 DUP3 ADD SWAP1 POP DUP2 DUP2 SUB PUSH0 DUP4 ADD MSTORE PUSH2 0x1116 DUP2 PUSH2 0x10DD JUMP JUMPDEST SWAP1 POP SWAP2 SWAP1 POP JUMP JUMPDEST PUSH32 0x4E6F742074686520737570706C69657200000000000000000000000000000000 PUSH0 DUP3 ADD MSTORE POP JUMP JUMPDEST PUSH0 PUSH2 0x1151 PUSH1 0x10 DUP4 PUSH2 0xC93 JUMP JUMPDEST SWAP2 POP PUSH2 0x115C DUP3 PUSH2 0x111D JUMP JUMPDEST PUSH1 0x20 DUP3 ADD SWAP1 POP SWAP2 SWAP1 POP JUMP JUMPDEST PUSH0 PUSH1 0x20 DUP3 ADD SWAP1 POP DUP2 DUP2 SUB PUSH0 DUP4 ADD MSTORE PUSH2 0x117E DUP2 PUSH2 0x1145 JUMP JUMPDEST SWAP1 POP SWAP2 SWAP1 POP JUMP JUMPDEST PUSH32 0x50726F64756374206E6F7420726561647920666F7220737570706C7900000000 PUSH0 DUP3 ADD MSTORE POP JUMP JUMPDEST PUSH0 PUSH2 0x11B9 PUSH1 0x1C DUP4 PUSH2 0xC93 JUMP JUMPDEST SWAP2 POP PUSH2 0x11C4 DUP3 PUSH2 0x1185 JUMP JUMPDEST PUSH1 0x20 DUP3 ADD SWAP1 POP SWAP2 SWAP1 POP JUMP JUMPDEST PUSH0 PUSH1 0x20 DUP3 ADD SWAP1 POP DUP2 DUP2 SUB PUSH0 DUP4 ADD MSTORE PUSH2 0x11E6 DUP2 PUSH2 0x11AD JUMP JUMPDEST SWAP1 POP SWAP2 SWAP1 POP JUMP JUMPDEST PUSH32 0x4E487B7100000000000000000000000000000000000000000000000000000000 PUSH0 MSTORE PUSH1 0x22 PUSH1 0x4 MSTORE PUSH1 0x24 PUSH0 REVERT JUMPDEST PUSH0 PUSH1 0x2 DUP3 DIV SWAP1 POP PUSH1 0x1 DUP3 AND DUP1 PUSH2 0x1231 JUMPI PUSH1 0x7F DUP3 AND SWAP2 POP JUMPDEST PUSH1 0x20 DUP3 LT DUP2 SUB PUSH2 0x1244 JUMPI PUSH2 0x1243 PUSH2 0x11ED JUMP JUMPDEST JUMPDEST POP SWAP2 SWAP1 POP JUMP JUMPDEST PUSH0 DUP2 SWAP1 POP DUP2 PUSH0 MSTORE PUSH1 0x20 PUSH0 KECCAK256 SWAP1 POP SWAP2 SWAP1 POP JUMP JUMPDEST PUSH0 PUSH1 0x20 PUSH1 0x1F DUP4 ADD DIV SWAP1 POP SWAP2 SWAP1 POP JUMP JUMPDEST PUSH0 DUP3 DUP3 SHL SWAP1 POP SWAP3 SWAP2 POP POP JUMP JUMPDEST PUSH0 PUSH1 0x8 DUP4 MUL PUSH2 0x12A6 PUSH32 0xFFFFFFFFFFFFFFFFFFFFFFFFFFFFFFFFFFFFFFFFFFFFFFFFFFFFFFFFFFFFFFFF DUP3 PUSH2 0x126B JUMP JUMPDEST PUSH2 0x12B0 DUP7 DUP4 PUSH2 0x126B JUMP JUMPDEST SWAP6 POP DUP1 NOT DUP5 AND SWAP4 POP DUP1 DUP7 AND DUP5 OR SWAP3 POP POP POP SWAP4 SWAP3 POP POP POP JUMP JUMPDEST PUSH0 DUP2 SWAP1 POP SWAP2 SWAP1 POP JUMP JUMPDEST PUSH0 PUSH2 0x12EB PUSH2 0x12E6 PUSH2 0x12E1 DUP5 PUSH2 0xC1C JUMP JUMPDEST PUSH2 0x12C8 JUMP JUMPDEST PUSH2 0xC1C JUMP JUMPDEST SWAP1 POP SWAP2 SWAP1 POP JUMP JUMPDEST PUSH0 DUP2 SWAP1 POP SWAP2 SWAP1 POP JUMP JUMPDEST PUSH2 0x1304 DUP4 PUSH2 0x12D1 JUMP JUMPDEST PUSH2 0x1318 PUSH2 0x1310 DUP3 PUSH2 0x12F2 JUMP JUMPDEST DUP5 DUP5 SLOAD PUSH2 0x1277 JUMP JUMPDEST DUP3 SSTORE POP POP POP POP JUMP JUMPDEST PUSH0 SWAP1 JUMP JUMPDEST PUSH2 0x132C PUSH2 0x1320 JUMP JUMPDEST PUSH2 0x1337 DUP2 DUP5 DUP5 PUSH2 0x12FB JUMP JUMPDEST POP POP POP JUMP JUMPDEST JUMPDEST DUP2 DUP2 LT ISZERO PUSH2 0x135A JUMPI PUSH2 0x134F PUSH0 DUP3 PUSH2 0x1324 JUMP JUMPDEST PUSH1 0x1 DUP2 ADD SWAP1 POP PUSH2 0x133D JUMP JUMPDEST POP POP JUMP JUMPDEST PUSH1 0x1F DUP3 GT ISZERO PUSH2 0x139F JUMPI PUSH2 0x1370 DUP2 PUSH2 0x124A JUMP JUMPDEST PUSH2 0x1379 DUP5 PUSH2 0x125C JUMP JUMPDEST DUP2 ADD PUSH1 0x20 DUP6 LT ISZERO PUSH2 0x1388 JUMPI DUP2 SWAP1 POP JUMPDEST PUSH2 0x139C PUSH2 0x1394 DUP6 PUSH2 0x125C JUMP JUMPDEST DUP4 ADD DUP3 PUSH2 0x133C JUMP JUMPDEST POP POP JUMPDEST POP POP POP JUMP JUMPDEST PUSH0 DUP3 DUP3 SHR SWAP1 POP SWAP3 SWAP2 POP POP JUMP JUMPDEST PUSH0 PUSH2 0x13BF PUSH0 NOT DUP5 PUSH1 0x8 MUL PUSH2 0x13A4 JUMP JUMPDEST NOT DUP1 DUP4 AND SWAP2 POP POP SWAP3 SWAP2 POP POP JUMP JUMPDEST PUSH0 PUSH2 0x13D7 DUP4 DUP4 PUSH2 0x13B0 JUMP JUMPDEST SWAP2 POP DUP3 PUSH1 0x2 MUL DUP3 OR SWAP1 POP SWAP3 SWAP2 POP POP JUMP JUMPDEST PUSH2 0x13F0 DUP3 PUSH2 0xC89 JUMP JUMPDEST PUSH8 0xFFFFFFFFFFFFFFFF DUP2 GT ISZERO PUSH2 0x1409 JUMPI PUSH2 0x1408 PUSH2 0xE27 JUMP JUMPDEST JUMPDEST PUSH2 0x1413 DUP3 SLOAD PUSH2 0x121A JUMP JUMPDEST PUSH2 0x141E DUP3 DUP3 DUP6 PUSH2 0x135E JUMP JUMPDEST PUSH0 PUSH1 0x20 SWAP1 POP PUSH1 0x1F DUP4 GT PUSH1 0x1 DUP2 EQ PUSH2 0x144F JUMPI PUSH0 DUP5 ISZERO PUSH2 0x143D JUMPI DUP3 DUP8 ADD MLOAD SWAP1 POP JUMPDEST PUSH2 0x1447 DUP6 DUP3 PUSH2 0x13CC JUMP JUMPDEST DUP7 SSTORE POP PUSH2 0x14AE JUMP JUMPDEST PUSH1 0x1F NOT DUP5 AND PUSH2 0x145D DUP7 PUSH2 0x124A JUMP JUMPDEST PUSH0 JUMPDEST DUP3 DUP2 LT ISZERO PUSH2 0x1484 JUMPI DUP5 DUP10 ADD MLOAD DUP3 SSTORE PUSH1 0x1 DUP3 ADD SWAP2 POP PUSH1 0x20 DUP6 ADD SWAP5 POP PUSH1 0x20 DUP2 ADD SWAP1 POP PUSH2 0x145F JUMP JUMPDEST DUP7 DUP4 LT ISZERO PUSH2 0x14A1 JUMPI DUP5 DUP10 ADD MLOAD PUSH2 0x149D PUSH1 0x1F DUP10 AND DUP3 PUSH2 0x13B0 JUMP JUMPDEST DUP4 SSTORE POP JUMPDEST PUSH1 0x1 PUSH1 0x2 DUP9 MUL ADD DUP9 SSTORE POP POP POP JUMPDEST POP POP POP POP POP POP JUMP JUMPDEST PUSH32 0x4E487B7100000000000000000000000000000000000000000000000000000000 PUSH0 MSTORE PUSH1 0x11 PUSH1 0x4 MSTORE PUSH1 0x24 PUSH0 REVERT JUMPDEST PUSH0 PUSH2 0x14ED DUP3 PUSH2 0xC1C JUMP JUMPDEST SWAP2 POP PUSH32 0xFFFFFFFFFFFFFFFFFFFFFFFFFFFFFFFFFFFFFFFFFFFFFFFFFFFFFFFFFFFFFFFF DUP3 SUB PUSH2 0x151F JUMPI PUSH2 0x151E PUSH2 0x14B6 JUMP JUMPDEST JUMPDEST PUSH1 0x1 DUP3 ADD SWAP1 POP SWAP2 SWAP1 POP JUMP JUMPDEST PUSH32 0x4E6F74207468652072657461696C657200000000000000000000000000000000 PUSH0 DUP3 ADD MSTORE POP JUMP JUMPDEST PUSH0 PUSH2 0x155E PUSH1 0x10 DUP4 PUSH2 0xC93 JUMP JUMPDEST SWAP2 POP PUSH2 0x1569 DUP3 PUSH2 0x152A JUMP JUMPDEST PUSH1 0x20 DUP3 ADD SWAP1 POP SWAP2 SWAP1 POP JUMP JUMPDEST PUSH0 PUSH1 0x20 DUP3 ADD SWAP1 POP DUP2 DUP2 SUB PUSH0 DUP4 ADD MSTORE PUSH2 0x158B DUP2 PUSH2 0x1552 JUMP JUMPDEST SWAP1 POP SWAP2 SWAP1 POP JUMP JUMPDEST PUSH32 0x50726F64756374206E6F7420726561647920666F722072657461696C00000000 PUSH0 DUP3 ADD MSTORE POP JUMP JUMPDEST PUSH0 PUSH2 0x15C6 PUSH1 0x1C DUP4 PUSH2 0xC93 JUMP JUMPDEST SWAP2 POP PUSH2 0x15D1 DUP3 PUSH2 0x1592 JUMP JUMPDEST PUSH1 0x20 DUP3 ADD SWAP1 POP SWAP2 SWAP1 POP JUMP JUMPDEST PUSH0 PUSH1 0x20 DUP3 ADD SWAP1 POP DUP2 DUP2 SUB PUSH0 DUP4 ADD MSTORE PUSH2 0x15F3 DUP2 PUSH2 0x15BA JUMP JUMPDEST SWAP1 POP SWAP2 SWAP1 POP JUMP INVALID LOG2 PUSH5 0x6970667358 0x22 SLT KECCAK256 DUP4 PREVRANDAO JUMPDEST ADDMOD DUP15 PUSH15 0xE275346FDD7F8415FFBA43235ADEDE CALLCODE DUP1 0xD0 MUL PUSH27 0xD0C90745F92664736F6C634300081A003300000000000000000000 "
				},
				"gasEstimates": {
					"creation": {
						"codeDepositCost": "1136000",
						"executionCost": "25443",
						"totalCost": "1161443"
					},
					"external": {
						"admin()": "2552",
						"createProduct(string,address,address,address)": "infinite",
						"distributeProduct(uint256)": "29318",
						"getProduct(uint256)": "infinite",
						"productCount()": "2447",
						"products(uint256)": "infinite",
						"retailProduct(uint256)": "29383",
						"supplyProduct(uint256)": "29339"
					}
				},
				"methodIdentifiers": {
					"admin()": "f851a440",
					"createProduct(string,address,address,address)": "aa74cf59",
					"distributeProduct(uint256)": "0e4000db",
					"getProduct(uint256)": "b9db15b4",
					"productCount()": "e0f6ef87",
					"products(uint256)": "7acc0b20",
					"retailProduct(uint256)": "ff403e23",
					"supplyProduct(uint256)": "6b36bed1"
				}
			},
			"storageLayout": {
				"storage": [
					{
						"astId": 27,
						"contract": "contracts/4_test.sol:SupplyChain",
						"label": "products",
						"offset": 0,
						"slot": "0",
						"type": "t_mapping(t_uint256,t_struct(Product)22_storage)"
					},
					{
						"astId": 29,
						"contract": "contracts/4_test.sol:SupplyChain",
						"label": "productCount",
						"offset": 0,
						"slot": "1",
						"type": "t_uint256"
					},
					{
						"astId": 31,
						"contract": "contracts/4_test.sol:SupplyChain",
						"label": "admin",
						"offset": 0,
						"slot": "2",
						"type": "t_address"
					}
				],
				"types": {
					"t_address": {
						"encoding": "inplace",
						"label": "address",
						"numberOfBytes": "20"
					},
					"t_enum(State)6": {
						"encoding": "inplace",
						"label": "enum SupplyChain.State",
						"numberOfBytes": "1"
					},
					"t_mapping(t_uint256,t_struct(Product)22_storage)": {
						"encoding": "mapping",
						"key": "t_uint256",
						"label": "mapping(uint256 => struct SupplyChain.Product)",
						"numberOfBytes": "32",
						"value": "t_struct(Product)22_storage"
					},
					"t_string_storage": {
						"encoding": "bytes",
						"label": "string",
						"numberOfBytes": "32"
					},
					"t_struct(Product)22_storage": {
						"encoding": "inplace",
						"label": "struct SupplyChain.Product",
						"members": [
							{
								"astId": 8,
								"contract": "contracts/4_test.sol:SupplyChain",
								"label": "id",
								"offset": 0,
								"slot": "0",
								"type": "t_uint256"
							},
							{
								"astId": 10,
								"contract": "contracts/4_test.sol:SupplyChain",
								"label": "name",
								"offset": 0,
								"slot": "1",
								"type": "t_string_storage"
							},
							{
								"astId": 13,
								"contract": "contracts/4_test.sol:SupplyChain",
								"label": "state",
								"offset": 0,
								"slot": "2",
								"type": "t_enum(State)6"
							},
							{
								"astId": 15,
								"contract": "contracts/4_test.sol:SupplyChain",
								"label": "manufacturer",
								"offset": 1,
								"slot": "2",
								"type": "t_address"
							},
							{
								"astId": 17,
								"contract": "contracts/4_test.sol:SupplyChain",
								"label": "supplier",
								"offset": 0,
								"slot": "3",
								"type": "t_address"
							},
							{
								"astId": 19,
								"contract": "contracts/4_test.sol:SupplyChain",
								"label": "distributor",
								"offset": 0,
								"slot": "4",
								"type": "t_address"
							},
							{
								"astId": 21,
								"contract": "contracts/4_test.sol:SupplyChain",
								"label": "retailer",
								"offset": 0,
								"slot": "5",
								"type": "t_address"
							}
						],
						"numberOfBytes": "192"
					},
					"t_uint256": {
						"encoding": "inplace",
						"label": "uint256",
						"numberOfBytes": "32"
					}
				}
			},
			"userdoc": {
				"kind": "user",
				"methods": {},
				"version": 1
			}
		}
	}
}